:020000040800F2
:10000000B0050020A1010008AF4C0008991F0008AE
:10001000AD4C000899070008E559000800000000F1
:100020000000000000000000000000000157000870
:100030009B07000800000000B14C000803570008AF
:10004000BB010008BB010008BB010008BB010008A0
:10005000BB010008BB010008BB010008BB01000890
:10006000BB010008BB010008BB010008BB01000880
:10007000BB010008BB010008BB010008BB01000870
:10008000BB010008BB010008BB010008BB01000860
:10009000BB010008BB010008BB010008BB01000850
:1000A000BB010008BB010008BB010008BB01000840
:1000B000BB010008BB010008BB010008BB01000830
:1000C000BB010008BB010008BB010008BB01000820
:1000D000BB010008D9590008BB010008BB0100089A
:1000E000BB010008BB010008BB010008BB01000800
:1000F000BB010008BB010008BB010008BB010008F0
:10010000BB010008E54C0008BB010008BB0100086A
:10011000BB010008BB010008BB010008BB010008CF
:10012000BB010008BB010008BB010008BB010008BF
:10013000BB010008BB010008BB010008BB010008AF
:10014000BB010008BB010008BB010008BB0100089F
:10015000BB010008BB010008BB010008BB0100088F
:10016000BB010008BB010008BB010008BB0100087F
:10017000BB010008BB010008BB0100080000000033
:10018000BB010008BB010008DFF810D000F0E0FA66
:1001900000480047D9630008AFF30080B005002095
:1001A0000648804706480047FEE7FEE7FEE7FEE711
:1001B000FEE7FEE7FEE7FEE7FEE7FEE79D570008E5
:1001C000890100082DE9F05F0546002092469B4614
:1001D00088460646814640241BE02846414647465D
:1001E000224600F002F953465A46C01A914110D3F4
:1001F00011461846224600F0E9F82D1A67EB01086F
:100200004F4622460120002100F0E0F817EB0009DC
:100210004E41201EA4F10104DFDC484631462A4647
:100220004346BDE8F09FD2B201E000F8012B491E21
:10023000FBD270470022F6E710B513460A46044683
:100240001946FFF7F0FF204610BD2DE9FE4F81EA69
:10025000030404F0004421F0004100944FF0000B2F
:1002600023F0004350EA01045ED052EA03045BD05D
:10027000C3F30A54C1F30A552C44A4F2F334019495
:10028000A0FB0254C1F3130141F48011C3F3130323
:1002900043F4801301FB024400FB034E840A970AD7
:1002A00044EA815447EA8357A4FB076802958D0A04
:1002B00005FB07854FEA932C04FB0C542705029D90
:1002C0004FEA065847EA1637B5EB08056EEB070C00
:1002D000870E920E47EA811742EA8312A7FB0201BA
:1002E000B6EB0B0164EB00042B0D43EA0C335E18F4
:1002F00044EB1C50DA465146E7FB0201C5F31304F8
:100300004FEA0B3343EA14534FEA0432019C43EAA9
:100310000603A4F10C040294009CCDE900B400F0A3
:1003200083F803B0BDE8F08F00200146F9E70EB571
:1003300040F2334102910021CDE900110A460B46FB
:1003400000F072F803B000BDC1F30A5210B5C1F35A
:10035000130140F2FF3341F480119A4201DA002088
:1003600010BD40F233439A42A2F2334203DC5242C0
:1003700000F03BF810BD904010BD00F0004230F09E
:1003800000400AD0C10D01F56071C0F3160042EAC9
:100390000151C208400711437047002001467047D1
:1003A00030B50B46014600202022012409E021FA45
:1003B00002F59D4205D303FA02F5491B04FA02F542
:1003C0002844151EA2F10102F1DC30BD202A04DB15
:1003D000203A00FA02F1002070479140C2F1200358
:1003E00020FA03F3194390407047202A04DB203A97
:1003F00021FA02F00021704721FA02F3D040C2F145
:100400002002914008431946704710B5141E73F13D
:10041000000408DA401C41F1000192185B411A43C4
:1004200001D120F0010010BD2DE9F04D92469B4610
:1004300011B1B1FA81F202E0B0FA80F220329046B6
:10044000FFF7C4FF04460F4640EA0A0041EA0B01E9
:1004500053465A46084313D0114653EA010019D0B7
:10046000C8F140025046FFF7C0FF05460E46504611
:1004700059464246FFF7AAFF084305D0012004E091
:1004800020463946BDE8F08D0020054346EAE07677
:100490002C4337430A986305E40AA0EB08000022C6
:1004A000FD0A44EA47540A3002D500200146E9E734
:1004B000010510196941DDE9084500196941BDE8E8
:1004C000F04DA2E72DE9FE4F804681EA0300C00F00
:1004D0000C46009021F0004123F00045B8EB0200EB
:1004E000A94105D24046214690461C460B4602468D
:1004F00023F00040104347D0270DC7F30A00C3F391
:100500000A510290401A019040286BDAC3F313009D
:1005100040F4801B0098924620B10023D2EB030ADE
:1005200063EB0B0B01985946C0F140025046FFF7B0
:100530004DFF06460D4650465946019A00F01AF9FD
:1005400010EB08006141002487EA115284EAE77346
:100550001A4340D0009A62B3019A012A4FEA075227
:1005600015DC001B61EB02014FF0004202EA07526A
:10057000CDE90042001C41F5801132462B46FFF7C1
:1005800053FF03B0BDE8F08F40462146F9E7001B5A
:1005900061EB0201001C41F5801300185B4120183B
:1005A000A2F5001747EB030140EAD570B6196D417B
:1005B00011E06D084FEA360645EAC0754FEA07526A
:1005C000001B61EB0201001C41F5801149084FEA54
:1005D00030000019514132462B4603B0BDE8F04FC0
:1005E000FFF713BF0098012240000023D0EB020266
:1005F00063EBE073009821464FEAE074B8EB00002B
:1006000061EB0401E9E783F000435BE781F000411F
:1006100058E72DE9F04D81EA030404F0004B21F086
:10062000004514464FF0000A23F0004150EA05024D
:1006300020D054EA01021DD0C5F30A570246C5F383
:100640001303C1F31300C1F30A5640F4801543F4B9
:100650008013A7EB0608101BD64608F2FD3873EB93
:10066000050002D308F1010801E092185B41B8F1DE
:10067000000F03DA00200146BDE8F08D00204FF4A2
:100680008011064684460EE0171B73EB050705D361
:10069000121B63EB050306434CEA010C49084FEAC1
:1006A000300092185B4150EA0107EDD152EA030095
:1006B00012D082EA040083EA0501084305D0101B2A
:1006C000AB4106D20122002306E000224FF0004396
:1006D00002E06FF0010253101AEB06004CEB0851D8
:1006E00010EB0A0041EB0B01BDE8F04DFFF78DBEAA
:1006F000C1F30A52C1F3130140F2FF3341F48011F8
:100700009A4202DA00200146704740F233439A428F
:10071000A2F2334202DC5242FFF767BEFFF756BE39
:1007200030B5041E71F1000404DB4FF00044404278
:1007300064EB0101141E73F1000405DB1C464FF04D
:100740000043524263EB0403994208BF904230BD1C
:10075000064C074D06E0E06840F0010394E807000E
:1007600098471034AC42F6D3FFF712FD1C7D000809
:100770003C7D0008202A06DBCB17203A41FA02F024
:1007800043EAE07306E041FA02F3D040C2F12002EE
:100790009140084319467047FEE7704772B6FEE77E
:1007A00030B5B3F5804F05D06FF0704140F822109E
:1007B000002030BD8C690B688D6823434C688989A3
:1007C000240144EA0524234343EA014150F822303E
:1007D000014C23401943E9E70000F0CF10B50A6847
:1007E00050F8223023F0010340F822308C68082CA6
:1007F00023D000234A682243CC681C430B69224360
:100800001A434B690E4C1A43CB691A430B6A1A43BD
:100810004B6A1A438B6A1A43CB6A1A430B6B1A430F
:100820008B691343CA6B09681A4350F82130A343FC
:10083000134340F82130002010BD4023DAE70000C8
:100840007FFF0F0030B5D1E9003443EA04138C6810
:100850008D89240244EA054423430C8A094D00EBA8
:10086000820005EB045423430C7D6D0105EB046409
:10087000896923430B43416801F040410B434360C6
:10088000002030BD0000F0FF2DE9F0410446876DE7
:1008900000F0A0F9064694F835000025022806D09D
:1008A0008020606584F834500120BDE8F081206824
:1008B000016821F0160101602068416921F0800182
:1008C0004161206C08B9A06C20B12068016821F05A
:1008D000080101602068016821F0010101600CE05D
:1008E00000F078F9801B052807D9202060650320D7
:1008F00084F8350084F83450D7E720680068C007D2
:10090000EED194F85C103F208840B860012084F854
:10091000350084F834500020C7E790F835100229DC
:1009200003D08021416501207047052180F83510F2
:100930000068016821F0010101600020704700009B
:1009400070B5044600F046F90546601C02D0044824
:100950000078044400F03EF9401BA042FAD370BD79
:1009600008000020F0B587B014216846FFF762FC4C
:1009700015480168002924D1012101601348002491
:10098000016841F0010101600068022500F00100EA
:1009900005904FF68470CDE9000502AA03260C27C6
:1009A00082E8D00069460A4800F016F84CF2B370AD
:1009B000CDE9000502AA694682E8D000054800F0AA
:1009C0000BF807B0F0BD00000000002038380240EE
:1009D00000100240000C02402DE9F84FDFF8BCA1E6
:1009E0000022012503264FF00F090AF1040BAAF19A
:1009F000040E00BF0B6805FA02F42340A34270D135
:100A00000F7907F00307012F01D0022F16D1876855
:100A10004FEA420806FA08FC27EA0C07D1F80CC096
:100A20000CFA08FC4CEA070CC0F808C04768A7435A
:100A30000C79C4F3001494403C4344600C79E443C3
:100A4000A4070AD0C4684FEA420C06FA0CF7BC436C
:100A50008F6807FA0CF72743C7600C7904F003048A
:100A6000022C12D1D40800EB840CDCF8204057078C
:100A7000FF0E09FA07F824EA0804D1F8108008FAF2
:100A800007F848EA0408CCF8208004684FEA420CD2
:100A900006FA0CF7BC430F7907F0030707FA0CF7C7
:100AA000274307604C6814F4403F70D03C4C2768E3
:100AB00047F480472760246822F0030704F4804449
:100AC0000094384C07EB040CDCF8084897074FEA11
:100AD000177809FA08F7BC43334FB84202D1002710
:100AE00024E054E0314FB84201D101271EE0304FDD
:100AF000B84201D1022719E02E4FB84201D1032795
:100B000014E02D4FB84201D104270FE02B4FB8421B
:100B100001D105270AE02A4FB84201D1062705E096
:100B2000284FB84201D1072700E0082707FA08F745
:100B30002743CCF80878DAF800405746D1F804C0CB
:100B40009C435FEACC2C00D51C433C60DBF80040A2
:100B50005F46D1F804C09C435FEA8C2C00D51C434F
:100B60003C60DEF800407746D1F804C09C435FEA61
:100B70008C3C00D51C433C60084F083F3C68D1F8D2
:100B800004C09C435FEACC3C00D51C433C60521C33
:100B9000102AFFF42FAFBDE8F88F0000083C014099
:100BA000443802400030014000000240000402408E
:100BB00000080240000C02400010024000140240F5
:100BC00000180240001C02400AB18161704709040C
:100BD000FBE7000001488068704700000800002023
:100BE0000248816802781144816070470800002043
:100BF0000B4810B5016841F400710160016841F4CF
:100C000080610160016841F480710160032000F09F
:100C10006FF80F2000F006F800F024F8002010BD57
:100C2000003C024070B50D4D04464FF47A712878AF
:100C3000B1FBF0F00A490968B1FBF0F000F0EBFFFE
:100C400048B9102C07D200222146501E00F030F87F
:100C500000206C6070BD012070BD00000800002005
:100C6000140000200A4808B5016841F48041016081
:100C7000006800F4804000900548001F016841F0C2
:100C800080510160006800F08050009008BD0000B5
:100C900044380240002809DB00F01F020121914086
:100CA0004009800000F1E020C0F80011704700000A
:100CB000F0B40E4B1B680C46C3F30223C3F10705C7
:100CC000042D00D90425191D072901D2002300E0B5
:100CD000DB1E012606FA05F1491E214099409E407F
:100CE000761E16403143F0BC04F002BF0CED00E06C
:100CF000064900F0070208684FF6FF03184040EA73
:100D00000220034A10430860704700000CED00E029
:100D10000000FA052DE9F0470E46050065D0DFF822
:100D20001481D8F80000F7B200F00700B04207D2F3
:100D300088F80070D8F8000000F00700B04254D1E5
:100D400028683D4C810712D5400703D5206840F440
:100D5000E05020602878000703D5206840F4604008
:100D600020602068A96820F0F000084320602878FF
:100D7000C0072DD0304968680839012812D00228F0
:100D800013D0032811D00968890700292DDA2168BA
:100D900021F0030101432160FFF71CFF814641F26E
:100DA000883A0EE009688903EFE709688901ECE7F2
:100DB000FFF710FFA0EB0901514502D90320BDE860
:100DC000F0872068696800F00C00B0EB810FEFD16C
:100DD000D8F80010404601F00701B14207D907706A
:100DE000006800F00700B04201D00120E7E7287852
:100DF000400705D52068E96820F4E05008432060EA
:100E00002878000706D52068296920F4604040EA68
:100E1000C100206000F038F82168084AC1F30311CE
:100E2000515CC8400649086006480068FFF7FAFEB2
:100E30000020C4E7003C0240083802404465000836
:100E4000140000200C0000200448054900680968CF
:100E5000044AC1F38221515CC8407047140000204D
:100E600008380240546500080448054900680968CC
:100E7000044AC1F34231515CC8407047140000205D
:100E80000838024054650008154810B5006810F095
:100E90000C02144813D01449042A0FD0082A0ED18A
:100EA0000F4C241F2268236802F03F025B0207D523
:100EB0002068C0F38810A0FB010106E0084610BDC1
:100EC0002168C1F38811A1FB00010023FFF77AF923
:100ED0002168C1F30141491C4900B0FBF1F010BD8C
:100EE000083802400024F40040787D012DE9F84FD5
:100EF00004006ED02078DFF84C93C007A9F10405F8
:100F00004AD009F104000168C1F38101012908D028
:100F10000068C0F3810002280AD1D9F8000040021D
:100F200006D52868800337D560680028E1D033E013
:100F30006068B0F5803F10D0B0F5A02F286810D0C1
:100F400020F480302860286820F4802028606068C1
:100F5000A8B1FFF73FFE06460DE0286840F4803058
:100F6000F4E740F480202860F7E700BFFFF732FE87
:100F7000801B642873D828688003F7D50CE0FFF73E
:100F800029FE064605E000BFFFF724FE801B64280B
:100F9000F0D828688003F7D42078DFF8AC82800787
:100FA0004FF0000A3ED5A748001D016811F00C0F54
:100FB00008D00068C0F3810002280BD1D9F80000E6
:100FC000400207D42868800716D5E068012800D1C0
:100FD00012E033E1E068B8B10120C8F80000FFF783
:100FE000F9FD064605E000BFFFF7F4FD801B02286F
:100FF000C0D828688007F7D52868216920F0F80054
:1010000040EAC10028600DE0C8F800A0FFF7E2FD4B
:10101000064604E0FFF7DEFD801B02281FD8286883
:101020008007F7D42078000722D5864F874861696A
:10103000703771B101210160FFF7CCFD064604E075
:10104000FFF7C8FD801B022809D838688007F7D54C
:101050000EE0C0F800A0FFF7BDFD064605E082E007
:10106000FFF7B8FD801B02287DD838688007F7D4C9
:101070002078400768D5DFF8CCB100270BF13C0B96
:10108000DBF80000C0000BD4DBF8001041F0805109
:10109000CBF80010DBF80000012700F08050009032
:1010A0006B4E3068C00510D4306840F480703060FA
:1010B000FFF790FD009005E0FFF78CFD0099401AC6
:1010C000022850D83068C005F6D55E4EA0686C3650
:1010D00001280FD00528306810D020F001003060C2
:1010E000306820F004003060A068B8B1FFF772FDEE
:1010F00000900FE0306840F00100F4E740F0040099
:101100003060F7E7FFF766FD0099411A41F2883039
:10111000814266D830688007F4D50EE0FFF75AFDAB
:10112000009007E0FFF756FD0099411A41F2883020
:10113000814256D830688007F4D42FB1DBF8001014
:1011400021F08051CBF80010A069C8B33D49091DBA
:101150000968C1F3810102294AD00228504607D00C
:10116000C8F8600000E03CE0FFF734FD04463BE0D7
:101170004746C8F86000FFF72DFD064605E000BFB2
:10118000FFF728FD801B02282BD828688001F7D4A0
:10119000D4E907010843A16A2E4A490802EB01413C
:1011A000626A41EA8211084394F82C1040EA016116
:1011B000C9F8001001203866FFF70CFD044606E070
:1011C0003EE000BFFFF706FD001B022809D8286893
:1011D0008001F7D534E000BFFFF7FCFC001B0228BC
:1011E00002D90320BDE8F88F28688001F4D427E0F5
:1011F0000128F7D0D9F80000E26900F4800191429B
:101200001CD1226A00F03F01914217D147F6C0710C
:10121000626A0140B1EB821F10D1A26A4FF0FF3326
:1012200000F4403103EB5202B1EB024F06D194F8C7
:101230002C1000F07060B0EB016F01D00120D1E7FD
:101240000020CFE70438024000004742800E4742AA
:10125000007000400000FFFF704700002DE9FE43D2
:101260000446002603200D4684F83400606C0328F1
:101270005ED0B5F5805F5BD04FF4006700204FF083
:101280008068BD421FD181460090019000212068F6
:1012900003F025FD800113D46946204604F032F89E
:1012A00007000DD10198400334D5B4F85000010473
:1012B000206803F04BFD070002D10221206823E0E3
:1012C000A06B384328E01DB1A06B40F0006023E024
:1012D0008146009001900021206803F000FD80010C
:1012E000EED46946204604F00DF80700E8D10198D5
:1012F000C0030FD5B4F850000104206803F026FDA8
:101300000700DDD10021206803F06DFD0700D7D173
:101310004F46D5E74746D3E7A063A06B144F4FF085
:10132000010848B12068876384F8348001260EE004
:10133000A06B40F08050EFE7211DD4E9050C0EC9E9
:10134000CDE90050CDF808C0206803F0D1FC4FF47F
:101350000071206803F02EFD28B121688F63A16B16
:101360000143A163012684F834803046BDE8FE8342
:10137000FF05400070470000F0B5426E920F0A7002
:10138000426EC2F383624A70426EC2F301628A7097
:10139000426E120CCA70B0F86420120A0A7190F8FA
:1013A00064204A71826E120DCA80826EC2F30342BB
:1013B0000A72B0F86820C2F3C0324A72B0F86820EE
:1013C000C2F380328A72B0F86820C2F34032CA7227
:1013D000B0F86820C2F300320A7300264E73426CE4
:1013E0004FF40075012462B1012A3AD002684749DE
:1013F0009163816B41F08051816380F8344001201A
:10140000F0BDB0F86820C36E9205120D42EA9372E7
:101410000A61C26EC2F3C2620A75C26EC2F3026290
:101420004A75C26EC2F342528A75C26EC2F38242DC
:10143000CA75C26EC2F3C2320A760A69521C42658C
:101440000B7E03F007039B1C9A4042650B7A03F066
:101450000F0704FA07F383655B0A5A43C0E91725AF
:101460000EE090F86820C36E9206920A42EA134298
:101470000A610A69521C92024265C0E91652056669
:1014800030F86C2FC2F3803201F8192F0288C2F3B2
:10149000C6124A70027802F07F028A704268D20F48
:1014A000CA704268C2F341720A714268C2F3826232
:1014B0004A714268C2F383528A714268C2F3405251
:1014C000CA710E724268C2F300424A728288C2F345
:1014D000C0328A728288C2F38032CA728288C2F3B2
:1014E00040320A738288C2F300324A738288C2F3A0
:1014F00081228A738288C2F30122CA730079C0F301
:10150000460008744C740020F0BD0000FF05400048
:1015100070B50446B0F8500000250104206803F0BF
:1015200018FD18B1A16B0143A16304E000212068FC
:1015300003F0D5FB0546C5F3432070BDF8B5056B38
:1015400004460068416B09041BD5290719D5D4E965
:101550000A56002E14D00027206803F0DFFB05F8A0
:10156000010B010A05F8011B010C05F8021B000E16
:10157000361F7F1C05F8010C082FEDD3C4E90A566D
:10158000F8BD416B4FF00006C9054FF0010744D587
:10159000390281632068C16B4CF23A329143C163D6
:1015A0002068C16A21F00101C16228071DD515F02C
:1015B000220F09D0206803F0FDFC28B1A16B014384
:1015C000A1632046FFF7D6FE216840F23A508863B7
:1015D00084F834702663A80703D0204600F05EF933
:1015E000F8BD204600F05BF9F8BD2806FCD5A8063A
:1015F00009D5206803F0DEFC28B1A16B0143A1638B
:101600002046FFF7B7FEA807EED12068C16A21F097
:101610000801C16284F83470E3E7416B490424D5C2
:10162000290722D5D4E90856002EDDD05FF0000747
:1016300015F8010B009015F8011B361F40EA012038
:10164000009015F8021B40EA0140009015F8011CBB
:1016500040EA016000906946206803F072FB7F1C3D
:10166000082FE5D3C4E90856F8BD416B40F23A2291
:101670001142F9D0416B890703D5A16B41F00201FA
:10168000A163416B090703D5A16B41F00801A16378
:10169000416B890603D5A16B41F02001A163416B29
:1016A000C90603D5A16B41F01001A163416B890507
:1016B00003D5A16B41F00801A16340F23A71816347
:1016C0002068C16B40F23A329143C163206803F055
:1016D00071FCA16B0843A063280706D584F8347019
:1016E00026632046FFF746FEF8BD2806FCD515F018
:1016F000300F0CD0E16B11480865E06BFFF70DF976
:101700000028F1D0E06BBDE8F84003F0D9BDA80790
:101710000CD0216C0A480865206CFFF7FEF8002801
:10172000E2D0206CBDE8F84003F0A8BDA66384F8C1
:10173000347026632046FFF78FFDF8BDC1520008C4
:101740007D52000870B504000ED094F834000025D6
:1017500018B92577204600F04FF8032084F83400AC
:10176000204600F00BF808B1012070BDA563256389
:10177000012084F83400002070BD0000FEB5002573
:10178000044676200095CDE9015029460B460A46CD
:10179000206803F0ADFA48BB154E46F8A05F2068FC
:1017A00003F0B8FA012535600220FFF7C9F820469A
:1017B00003F090FE30B100BF84F83450A16B0143B8
:1017C000A16313E0204603F00DFE0028F4D14FF48E
:1017D0000071206803F0EEFA002808D0226805495D
:1017E0009163A16B0143A16384F834500120FEBDD5
:1017F00000802542FF054000F0B587B00446142163
:101800006846FEF717FD2149206888423BD12048F1
:101810000024016841F400610160006800F4006088
:1018200005901B481438016841F00401016001680B
:1018300001F004010591016841F0080101600068B0
:10184000022500F0080005904FF4F850CDE900059E
:1018500002AA03260C2782E8D00069460D48FFF74C
:10186000BBF80420CDE9000502AA694682E8D00051
:101870000948FFF7B1F8002211463120FFF718FAA6
:101880003120FFF707FA07B0F0BD0000002C01403F
:101890004438024000080240000C02407047704784
:1018A00070B5040009D0606A002540B1256165610A
:1018B000A56294F8510040B10CE0012070BD606851
:1018C000B0F5827FF4D0E561F2E784F8505020460D
:1018D00000F044F8022084F851002068016821F0EB
:1018E00040010160A088218900F4827001F4044164
:1018F0000843A18901F400610843217C01F0020141
:101900000843217D01F001010843218B01F400719E
:101910000843217F01F03801084394F8201001F0BA
:1019200080010843218D01F40051084321680860BB
:10193000A069042101EA104094F8241001F010017C
:101940000843216848602068C16921F40061C161D1
:101950006565012084F85100002070BD10B586B087
:10196000044614216846FEF765FC14492068884245
:1019700021D113480021026842F4804202600068CD
:1019800000F4804005900E481038026842F00202D0
:101990000260006800F0020005904FF46040009083
:1019A0000220CDE90101032003900520049069463F
:1019B0000448FFF711F806B010BD000000380040E1
:1019C00040380240000402402DE9FF4F81B0044638
:1019D00090F8500000260E9F1D4693464FF00109D7
:1019E00001280FD04FF0010A84F850A0FFF7F2F859
:1019F000804694F85100616801280DD0B1F5827FCE
:101A000008D103E0022005B0BDE8F08FA16809B954
:101A1000042801D00226C9E00298002865D0BBF155
:101A2000000FFBD0002DF9D094F85100042802D00B
:101A3000052084F8510000206065C4F838B0E587BF
:101A4000A58702992163E586A586206460642068E5
:101A50000168490603D4016841F040010160E06873
:101A6000B0F5006F606803D0F0B3012D47D081E07E
:101A700008B1012D3CD1206B21680088C860206B23
:101A8000801C2063E08E401EE08631E02068816883
:101A900089070FD5E18E69B1B9F1010F0AD1216B28
:101AA0000988C160206B801C2063E08E401EE086A8
:101AB0004FF0000920688168C9070CD0E18F51B14F
:101AC000C068A16B0880A06B801CA063E08F401EE3
:101AD000E0874FF00109FFF77DF8A0EB0800B8425E
:101AE00006D3781C04D001E009E05BE003265BE04C
:101AF000E08E0028CAD1E08F0028C7D140E0206BDB
:101B0000216800780873206B401C2063E08E401E23
:101B1000E0862FE02068816889070FD5E18E69B1E2
:101B2000B9F1010F0AD1216B09780173206B401CB8
:101B30002063E08E401EE0864FF000092068816837
:101B4000C9070CD0E18F51B1C068A16B0870A06BC0
:101B5000401CA063E08F401EE0874FF00109FFF7B3
:101B600039F8A0EB0800B84202D3781C02D0BAE7DB
:101B7000002FB8D0E08E0028CCD1E08F0028C9D14A
:101B800042463946204603F029FD18B1012620209F
:101B900060650BE0A06818B92068C1688068009093
:101BA000606D08B1012601E084F851A0002084F89E
:101BB0005000304627E770B515460E46040003D0A6
:101BC00094F8490010B107E0012070BD002084F8AE
:101BD0004800204600F01DF804F108012068FEF7D7
:101BE000FDFD3146A2682068FEF72CFED4E9010213
:101BF0002946236BFEF7D4FD2168A06851F8202008
:101C000042F0010241F82020012084F84900002020
:101C100070BDFEF7A7BE10B5401EB0F1807F01D3A6
:101C2000012010BD4FF0E02460610F21601703F028
:101C30005FFF0020A06107202061002010BD7047D9
:101C400070470000F8B5016804460868CA684B6927
:101C500010F00F0F4FF0000559D003F0010602F409
:101C60009077374365D0C10705D0D10503D5616CA6
:101C700041F001016164410705D5D90703D0616CCA
:101C800041F002016164810705D5D90703D0616C79
:101C900041F004016164010707D502F020013143DE
:101CA00003D0616C41F008016164616C00293AD095
:101CB000800604D5900602D5204603F0A6FD2068D4
:101CC0004069616CC0F38010090700D460B32046FE
:101CD00003F074FD20684069400621D52068143067
:101CE00050E8001F21F0400140E80012002AF5D121
:101CF000E06BA8B16E490165E06BFEF70EFE0028AF
:101D000011D0E06B016D01B0BDE8F04008478306DB
:101D10000FD593060DD52046BDE8F84003F075BDFC
:101D20002046FFF78DFFF8BD2046FFF789FF656469
:101D3000F8BD266B2023012E7DD1C6067BD5D606A5
:101D400079D508684868009048694FF00206400657
:101D500041D5E16B086840680004000CE8D0A28D12
:101D60008242E5D9E085C869B0F5807F2DD0206832
:101D70000C3050E8001F21F4807140E80012002A66
:101D8000F5D12068143050E8001F21F0010140E82F
:101D90000012002AF5D12068143050E8001F21F00D
:101DA000400140E80012002AF5D184F84230256352
:101DB00020680C3050E8001F21F0100140E80012AC
:101DC000002AF5D1E06BFEF75FFD6663A08DE18D23
:101DD000401A81B22AE0A08DE18D401A81B2E08DD7
:101DE0000028A5D00029A3D022680C3252E8000FA9
:101DF00020F4907042E80007002FF5D120681430DD
:101E000050E8002F22F0010240E80027002FF5D112
:101E100084F84230256320680C3050E8002F22F00F
:101E2000100240E80023002BF5D166632046FFF73F
:101E300006FFF8BDFFE705062BD5150629D594F852
:101E400041002128F5D1A068B0F5805F01D120695B
:101E5000B0B1206A411C2162216800784860E08CA2
:101E6000401E0004000CE084E3D12068C16821F02A
:101E70008001C1602068C16841F04001C160D8E7BD
:101E8000206A0088C0F308004860206A801C206235
:101E9000E5E74006CDD55006CBD5CA68204622F0EE
:101EA0004002CA6084F8413000F075F8C1E70000D4
:101EB000AD57000870B5040004D094F84100002527
:101EC00010B106E0012070BD84F84050204600F0BB
:101ED00023F8242084F841002068C16821F40051CF
:101EE000C160204603F0F2FC2068016921F49041B2
:101EF00001612068416921F02A0141612068C168BF
:101F000041F40051C1606564202084F8410084F8E8
:101F100042006563002070BD10B586B004461421F0
:101F20006846FEF787F918492068884229D1174882
:101F30000021026842F010020260006800F0100008
:101F4000059012481438026842F0010202600068ED
:101F500000F0010005904FF4C06000900220CDE930
:101F60000101032003900720049069460848FEF70A
:101F700033FD002211462520FEF79AFE2520FEF7AC
:101F800089FE06B010BD0000001001404438024038
:101F90000000024070477047FEE7000070B50A4934
:101FA0000646002408884D8821464543204602F015
:101FB00023FC02F03FFD4FF0C24001E00680641CAC
:101FC000AC42FBD370BD00009C0100202DE9F04F16
:101FD0002B492C260A46887192884FF4305A4FF4C8
:101FE000285B4FF4487541F6631E2B274FF02A0CEF
:101FF0004FF0F00845F210594FF4A0744FF4F0730D
:10200000B8B10C80A1F802804A4532D1A1F808A0ED
:10201000A1F80AB0380288810D804B80A2F5A64055
:10202000103801D10B804C80BDE8F04F002002F049
:1020300023BBA1F800804C804A4507D1A1F808A035
:10204000A1F80AB04FF42C50888105E072450E814A
:1020500005D14F81A1F80CC00B804D8002E0A1F8A2
:102060000AC08F81A2F5A6401038DDD10C804B80CC
:10207000DAE70E81A1F80AC072458F81CCD0CDE796
:102080009C0100202DE9F041314B0D460446060A23
:102090009988184690462F0A4089A1F5AA42103A1D
:1020A0000FD0A1F5C852633A24D002F0BBFC3046F1
:1020B00002F0B0FCE0B202F0ADFC988902F0B2FC94
:1020C00036E002F0AFFC304602F0A4FC5889401C18
:1020D00080B202F0A7FCE0B202F09CFC988902F00A
:1020E000A1FC384602F096FC9889401C80B202F0B0
:1020F00099FC20E0997919B91988091B491E8CB2FD
:1021000002F090FC260A304602F084FCE0B202F0B5
:1021100081FC304602F07EFCE0B202F07BFC988944
:1021200002F080FC384602F075FCE8B202F072FC66
:10213000384602F06FFCE8B202F06CFC4FF0C04190
:10214000188908804FF0C241A1F80080BDE8F081F5
:102150009C0100202DE9F05F3220FEF7F1FBD32037
:1021600002F060FC02F058FAFE4CA08002F054FA33
:10217000A08002F051FA4FF6FF7505EA0020A0801A
:1021800002F04AFAA18849F241370843A08047F299
:10219000897645F2103845F2105941F6631A4FF42A
:1021A000704BB84276D0042002F03CFC02F034FAC6
:1021B000A08002F031FAA08002F02EFA05EA002099
:1021C000A08002F029FAA1880843A0F50541A0806B
:1021D00052395BD0B0425DD0D42002F023FC02F033
:1021E0001BFAA08002F018FAA08002F015FA05EAA6
:1021F0000020A08002F010FAA1880843A08040458A
:1022000048D05521584602F01DFCAA214FF201008A
:1022100002F018FC52214FF2020002F013FC0821D8
:102220004FF2030002F00EFC01214FF2040002F015
:1022300009FC4FF4454002F0F5FB02F0EDF905EA28
:102240000020A0804CF2015002F0ECFB02F0E4F917
:10225000A1880843A0803220FEF772FBA18849457F
:1022600018D0A12002F0DEFB02F0D6F9A08002F027
:10227000D3F905EA0020A08002F0CEF9A188084336
:10228000A0F5AE41A080613902D003E0A68001E054
:10229000A4F804A0A188B4A003F008FCA088B84268
:1022A0007ED1CF2002F0BEFB002002F0B3FBC120A4
:1022B00002F0B0FB302002F0ADFBED2002F0B2FBEB
:1022C000642002F0A7FB032002F0A4FB122002F01E
:1022D000A1FB812002F09EFBE82002F0A3FB8520F9
:1022E00002F098FB102002F095FB7A2002F092FB9E
:1022F000CB2002F097FB392002F08CFB2C2002F05F
:1023000089FB002002F086FB342002F083FB0220D0
:1023100002F080FBF72002F085FB202002F07AFB20
:10232000EA2002F07FFB002002F074FB002002F0A4
:1023300071FBC02002F076FB1B2002F06BFBC1207A
:1023400002F070FB012002F065FBC52002F06AFB81
:10235000302002F05FFB302002F05CFBC72002F06F
:1023600061FBB72002F056FB362002F05BFB4820F1
:1023700002F050FB3A2002F055FB552002F04AFBD8
:10238000B12002F04FFB002002F044FB1A2002F0C3
:1023900041FBB62002F046FB0A2002F03BFB00E0C6
:1023A00093E0A22002F036FBF22002F03BFB00207B
:1023B00002F030FB262002F035FB012002F02AFB60
:1023C000E02002F02FFB0F2002F024FB2A2002F075
:1023D00021FB282002F01EFB082002F01BFB0E2030
:1023E00002F018FB082002F015FB542002F012FB4B
:1023F000A92002F00FFB432002F00CFB0A2002F0A0
:1024000009FB0F2002F006FB002002F003FB002076
:1024100002F000FB002002F0FDFA002002F0FAFAC0
:10242000E12002F0FFFA002002F0F4FA152002F099
:10243000F1FA172002F0EEFA072002F0EBFA112071
:1024400002F0E8FA062002F0E5FA2B2002F0E2FAA8
:10245000562002F0DFFA3C2002F0DCFA052002F000
:10246000D9FA102002F0D6FA0F2002F0D3FA3F205A
:1024700002F0D0FA3F2002F0CDFA0F2002F0CAFAA3
:102480002B2002F0CFFA002002F0C4FA002002F064
:10249000C1FA012002F0BEFA3F2002F0BBFA2A2066
:1024A00002F0C0FA002002F0B5FA002002F0B2FA01
:1024B000002002F0AFFAEF2002F0ACFA112002F097
:1024C000B1FA7820FEF73CFADEE0B0427ED111206E
:1024D00002F0A8FA7820FEF733FA362002F0A2FACA
:1024E000002002F097FA3A2002F09CFA052002F050
:1024F00091FAB22002F096FA0C2002F08BFA0C202E
:1025000002F088FA002002F085FA332002F082FA05
:10251000332002F07FFAB72002F084FA352002F06F
:1025200079FABB2002F07EFA322002F073FAC02062
:1025300002F078FA0C2002F06DFAC22002F072FA72
:10254000012002F067FAC32002F06CFA102002F0BA
:1025500061FAC42002F066FA202002F05BFAC6207D
:102560000AE000009C010020204C43442049443AEA
:1025700025780D0A0000000002F054FA0F2002F046
:1025800049FAD02002F04EFAA42002F043FAA1202A
:1025900002F040FAE02002F045FAD02002F03AFAC8
:1025A000002002F037FA022002F034FA072002F08D
:1025B00031FA0A2002F02EFA282002F02BFA3220FB
:1025C00002F028FA442002F025FA00E05FE0422001
:1025D00002F020FA062002F01DFA0E2002F01AFA8C
:1025E000122002F017FA142002F014FA172002F059
:1025F00011FAE12002F016FAD02002F00BFA0020C6
:1026000002F008FA022002F005FA072002F002FAAE
:102610000A2002F0FFF9282002F0FCF9312002F034
:10262000F9F9542002F0F6F9472002F0F3F90E20F0
:1026300002F0F0F91C2002F0EDF9172002F0EAF99F
:102640001B2002F0E7F91E2002F0E4F92A2002F034
:10265000E9F9002002F0DEF9002002F0DBF90020A9
:1026600002F0D8F9EF2002F0D5F92B2002F0DAF9C8
:10267000002002F0CFF9002002F0CCF9012002F096
:10268000C9F93F2002F0C6F9292001F0FABE404501
:102690007ED1ED2002F0C6F9012002F0BBF9FE2048
:1026A00002F0B8F9EE2002F0BDF9DE2002F0B2F936
:1026B000212002F0AFF9F12002F0B4F9012002F07C
:1026C000A9F9DF2002F0AEF9102002F0A3F9C4202E
:1026D00002F0A8F98F2002F09DF9C62002F0A2F9BD
:1026E000002002F097F9E22002F094F9E22002F0D3
:1026F00091F9E22002F08EF9BF2002F093F9AA20AE
:1027000002F088F9B02002F08DF90D2002F082F974
:10271000002002F07FF90D2002F07CF9002002F089
:1027200079F9112002F076F9002002F073F91920EE
:1027300002F070F9002002F06DF9212002F06AF930
:10274000002002F067F92D2002F064F9002002F069
:1027500061F93D2002F05EF9002002F05BF95D2096
:1027600002F058F9002002F055F95D2002F052F90C
:10277000002002F04FF9B12002F054F9802002F05D
:1027800049F9002002F046F98B2002F043F900E0FD
:10279000FDE3002002F03EF9962002F03BF9002014
:1027A00002F038F9B22002F03DF9002002F032F9CF
:1027B000002002F02FF9022002F02CF9002002F094
:1027C00029F9032002F026F9002002F023F9B320B2
:1027D00002F028F9002002F01DF9002002F01AF999
:1027E000002002F017F9002002F014F9002002F096
:1027F00011F9002002F00EF9002002F00BF9002080
:1028000002F008F9002002F005F9002002F002F9B8
:10281000002002F0FFF8002002F0FCF8002002F097
:10282000F9F8002002F0F6F8002002F0F3F800209A
:1028300002F0F0F8002002F0EDF8002002F0EAF8D3
:10284000002002F0E7F8002002F0E4F8002002F097
:10285000E1F8002002F0DEF8002002F0DBF80020B2
:1028600002F0D8F8B42002F0DDF88B2002F0D2F8A4
:10287000002002F0CFF8962002F0CCF8002002F001
:10288000C9F8A12002F0C6F8002002F0C3F8B52074
:1028900002F0C8F8022002F0BDF8002002F0BAF8F9
:1028A000032002F0B7F8002002F0B4F8042002F090
:1028B000B1F8002002F0AEF8B62002F0B3F8002024
:1028C00002F0A8F8002002F0A5F8B72002F0AAF85C
:1028D000002002F09FF8002002F09CF83F2002F058
:1028E00099F8002002F096F85E2002F093F800209C
:1028F00002F090F8642002F08DF8002002F08AF8CF
:102900008C2002F087F8002002F084F8AC2002F05E
:1029100081F8002002F07EF8DC2002F07BF8002035
:1029200002F078F8702002F075F8002002F072F8DA
:10293000902002F06FF8002002F06CF8EB2002F01B
:1029400069F8002002F066F8DC2002F063F800204D
:1029500002F060F8B82002F065F8002002F05AF8A2
:10296000002002F057F8002002F054F8002002F096
:1029700051F8002002F04EF8002002F04BF8002041
:1029800002F048F8002002F045F8BA2002F04AF8B8
:10299000242002F03FF8002002F03CF8002002F072
:1029A00039F8002002F036F8C12002F03BF8202070
:1029B00002F030F8002002F02DF8542002F02AF83E
:1029C000002002F027F8FF2002F024F8002002F097
:1029D00021F8C22002F026F80A2002F01BF800209D
:1029E00002F018F8042002F015F8002002F012F8A6
:1029F000C32002F017F83C2002F00CF8002002F08F
:102A000009F83A2002F006F8002002F003F8392015
:102A100002F000F8002001F0FDFF372001F0FAFF7E
:102A2000002001F0F7FF3C2001F0F4FF002001F04E
:102A3000F1FF362001F0EEFF002001F0EBFF322025
:102A400001F0E8FF002001F0E5FF2F2001F0E2FF98
:102A5000002001F0DFFF2C2001F0DCFF002001F05E
:102A6000D9FF292001F0D6FF002001F0D3FF262056
:102A700001F0D0FF002001F0CDFF242001F0CAFFBB
:102A8000002001F0C7FF242001F0C4FF002001F066
:102A9000C1FF232001F0BEFF002001F0BBFF3C205E
:102AA00001F0B8FF002001F0B5FF362001F0B2FFC1
:102AB000002001F0AFFF322001F0ACFF002001F058
:102AC000A9FF2F2001F0A6FF002001F0A3FF2C207A
:102AD00001F0A0FF002001F09DFF292001F09AFFE6
:102AE000002001F097FF262001F094FF002001F064
:102AF00091FF242001F08EFF002001F08BFF2420A5
:102B000001F088FF002001F085FF232001F082FF03
:102B1000002001F07FFFC42001F084FF622001F05B
:102B200079FF002001F076FF052001F073FF0020FF
:102B300001F070FF842001F06DFF002001F06AFFBA
:102B4000F02001F067FF002001F064FF182001F081
:102B500061FF002001F05EFFA42001F05BFF002078
:102B600001F058FF182001F055FF002001F052FF3E
:102B7000502001F04FFF002001F04CFF0C2001F02D
:102B800049FF002001F046FF172001F043FF00201D
:102B900001F040FF952001F03DFF002001F03AFFD9
:102BA000F32001F037FF002001F034FFE62001F0B0
:102BB00031FF002001F02EFFC52001F033FF32204D
:102BC00001F028FF002001F025FF442001F022FF42
:102BD000002001F01FFF652001F01CFF002001F024
:102BE00019FF762001F016FF002001F013FF882066
:102BF00001F010FF002001F00DFFC62001F012FFD0
:102C0000202001F007FF002001F004FF172001F051
:102C100001FF002001F0FEFE012001F0FBFE00207C
:102C200001F0F8FEC72001F0FDFE002001F0F2FEE9
:102C3000002001F0EFFE002001F0ECFE002001F08A
:102C4000E9FEC82001F0EEFE002001F0E3FE0020C6
:102C500001F0E0FE002001F0DDFE002001F0DAFED0
:102C6000C92001F0DFFE002001F0D4FE002001F0B9
:102C7000D1FE002001F0CEFE002001F0CBFE0020AE
:102C800001F0C8FE002001F0C5FE002001F0C2FEE8
:102C9000002001F0BFFE002001F0BCFE002001F08A
:102CA000B9FE002001F0B6FE002001F0B3FE0020C6
:102CB00001F0B0FE002001F0ADFE002001F0AAFE00
:102CC000002001F0A7FEE02001F0ACFE162001F08C
:102CD000A1FE002001F09EFE1C2001F09BFE0020C2
:102CE00001F098FE212001F095FE002001F092FEF7
:102CF000362001F08FFE002001F08CFE462001F00E
:102D000089FE002001F086FE522001F083FE0020A3
:102D100001F080FE642001F07DFE002001F07AFECB
:102D20007A2001F077FE002001F074FE8B2001F084
:102D300071FE002001F06EFE992001F06BFE002074
:102D400001F068FEA82001F065FE002001F062FE9F
:102D5000B92001F05FFE002001F05CFEC42001F00C
:102D600059FE002001F056FECA2001F053FE00205B
:102D700001F050FED22001F04DFE002001F04AFE8D
:102D8000D92001F047FE002001F044FEE02001F0D0
:102D900041FE002001F03EFEF32001F03BFE00204A
:102DA00001F038FEE12001F03DFE162001F032FE78
:102DB000002001F02FFE1C2001F02CFE002001F06D
:102DC00029FE222001F026FE002001F023FE3620FD
:102DD00001F020FE002001F01DFE452001F01AFE4A
:102DE000002001F017FE522001F014FE002001F037
:102DF00011FE642001F00EFE002001F00BFE7A208F
:102E000001F008FE002001F005FE8B2001F002FE1B
:102E1000002001F0FFFD992001F0FCFD002001F0F1
:102E2000F9FDA82001F0F6FD002001F0F3FDB92026
:102E300001F0F0FD002001F0EDFDC42001F0EAFDFD
:102E4000002001F0E7FDCA2001F0E4FD002001F0C0
:102E5000E1FDD22001F0DEFD002001F0DBFDD820F5
:102E600001F0D8FD002001F0D5FDE02001F0D2FDF9
:102E7000002001F0CFFDF32001F0CCFD002001F097
:102E8000C9FDE22001F0CEFD052001F0C3FD0020C8
:102E900001F0C0FD0B2001F0BDFD002001F0BAFDE6
:102EA0001B2001F0B7FD002001F0B4FD342001F03B
:102EB000B1FD002001F0AEFD442001F0ABFD00208B
:102EC00001F0A8FD4F2001F0A5FD002001F0A2FDBA
:102ED000612001F09FFD002001F09CFD792001F0B0
:102EE00099FD002001F096FD882001F093FD00205F
:102EF00001F090FD972001F08DFD002001F08AFD8A
:102F0000A62001F087FD002001F084FDB72001F02C
:102F100081FD002001F07EFDC22001F07BFD00203C
:102F200001F078FDC72001F075FD002001F072FD71
:102F3000D12001F06FFD002001F06CFDD62001F0E2
:102F400069FD002001F066FDDD2001F063FD002039
:102F500001F060FDF32001F05DFD002001F05AFD5D
:102F6000E32001F05FFD052001F054FD002001F099
:102F700051FD0A2001F04EFD002001F04BFD1C2008
:102F800001F048FD002001F045FD332000E0FAE2A9
:102F900001F040FD002001F03DFD442001F03AFD2C
:102FA000002001F037FD502001F034FD002001F039
:102FB00031FD622001F02EFD002001F02BFD782074
:102FC00001F028FD002001F025FD882001F022FD00
:102FD000002001F01FFD972001F01CFD002001F0F2
:102FE00019FDA62001F016FD002001F013FDB72009
:102FF00001F010FD002001F00DFDC22001F00AFDDE
:10300000002001F007FDC72001F004FD002001F0C1
:1030100001FDD12001F0FEFC002001F0FBFCD520D9
:1030200001F0F8FC002001F0F5FCDD2001F0F2FCDD
:10303000002001F0EFFCF32001F0ECFC002001F097
:10304000E9FCE42001F0EEFC012001F0E3FC0020AB
:1030500001F0E0FC012001F0DDFC002001F0DAFCD1
:10306000022001F0D7FC002001F0D4FC2A2001F05E
:10307000D1FC002001F0CEFC3C2001F0CBFC002074
:1030800001F0C8FC4B2001F0C5FC002001F0C2FC9F
:103090005D2001F0BFFC002001F0BCFC742001F0B9
:1030A000B9FC002001F0B6FC842001F0B3FC002044
:1030B00001F0B0FC932001F0ADFC002001F0AAFC6F
:1030C000A22001F0A7FC002001F0A4FCB32001F035
:1030D000A1FC002001F09EFCBE2001F09BFC002022
:1030E00001F098FCC42001F095FC002001F092FC56
:1030F000CD2001F08FFC002001F08CFCD32001F0EA
:1031000089FC002001F086FCDD2001F083FC00201A
:1031100001F080FCF32001F07DFC002001F07AFC3E
:10312000E52001F07FFC002001F074FC002001F09C
:1031300071FC002001F06EFC002001F06BFC02200D
:1031400001F068FC002001F065FC292001F062FC20
:10315000002001F05FFC3C2001F05CFC002001F04D
:1031600059FC4B2001F056FC002001F053FC5D207F
:1031700001F050FC002001F04DFC742001F04AFCED
:10318000002001F047FC842001F044FC002001F005
:1031900041FC932001F03EFC002001F03BFCA2200A
:1031A00001F038FC002001F035FCB32001F032FCC6
:1031B000002001F02FFCBE2001F02CFC002001F0CB
:1031C00029FCC42001F026FC002001F023FCCD20C6
:1031D00001F020FC002001F01DFCD32001F01AFCBE
:1031E000002001F017FCDC2001F014FC002001F0AD
:1031F00011FCF32001F00EFC002001F00BFCE62096
:1032000001F010FC112001F005FC002001F002FC8F
:10321000342001F0FFFB002001F0FCFB562001F000
:10322000F9FB002001F0F6FB762001F0F3FB002013
:1032300001F0F0FB772001F0EDFB002001F0EAFB4C
:10324000662001F0E7FB002001F0E4FB882001F09C
:10325000E1FB002001F0DEFB992001F0DBFB002008
:1032600001F0D8FBBB2001F0D5FB002001F0D2FB20
:10327000992001F0CFFB002001F0CCFB662001F08B
:10328000C9FB002001F0C6FB552001F0C3FB002064
:1032900001F0C0FB552001F0BDFB002001F0BAFB9E
:1032A000452001F0B7FB002001F0B4FB432001F002
:1032B000B1FB002001F0AEFB442001F0ABFB00208D
:1032C00001F0A8FBE72001F0ADFB322001F0A2FBEA
:1032D000002001F09FFB552001F09CFB002001F035
:1032E00099FB762001F096FB002001F093FB66200D
:1032F00001F090FB002001F08DFB672001F08AFBBC
:10330000002001F087FB672001F084FB002001F022
:1033100081FB872001F07EFB002001F07BFB9920E0
:1033200001F078FB002001F075FBBB2001F072FB7F
:10333000002001F06FFB992001F06CFB002001F0F0
:1033400069FB772001F066FB002001F063FB44205D
:1033500001F060FB002001F05DFB562001F05AFBFC
:10336000002001F057FB232001F054FB002001F066
:1033700051FB332001F04EFB002001F04BFB4520B8
:1033800001F048FB002001F045FBE82001F04AFB7A
:10339000002001F03FFB002001F03CFB992001F0F0
:1033A00039FB002001F036FB872001F033FB0020C1
:1033B00001F030FB882001F02DFB002001F02AFBFA
:1033C000772001F027FB002001F024FB662001F0AC
:1033D00021FB002001F01EFB882001F01BFB0020D8
:1033E00001F018FBAA2001F015FB002001F012FBF0
:1033F000BB2001F00FFB002001F00CFB992001F035
:1034000009FB002001F006FB662001F003FB002011
:1034100001F000FB552001F0FDFA002001F0FAFA5E
:10342000552001F0F7FA002001F0F4FA442001F0F1
:10343000F1FA002001F0EEFA442001F0EBFA00204E
:1034400001F0E8FA552001F0E5FA002001F0E2FA77
:10345000E92001F0E7FAAA2001F0DCFA002001F0EF
:10346000D9FA002001F0D6FA002001F0D3FA0020AA
:1034700001F0D8FAAA2001F0CDFACF2001F0D2FA5B
:10348000002001F0C7FA002001F0C4FA002001F08A
:10349000C1FA002001F0BEFA002001F0BBFA0020C2
:1034A00001F0B8FA002001F0B5FA002001F0B2FAFC
:1034B000002001F0AFFA002001F0ACFA002001F08A
:1034C000A9FA002001F0A6FA002001F0A3FA0020DA
:1034D00001F0A0FA002001F09DFA002001F09AFA14
:1034E000002001F097FAF02001F09CFA002001F092
:1034F00091FA502001F08EFA002001F08BFA0020A2
:1035000001F088FA002001F085FAF32001F08AFA30
:10351000002001F07FFAF92001F084FA062001F082
:1035200079FA102001F076FA292001F073FA0020D0
:1035300001F070FA3A2001F075FA552001F06AFAAC
:10354000112001F06FFA6420FDF7FAF9292001F04B
:1035500069FA352001F066FA002001F05BFA51208B
:1035600001F060FAFF2001F055FA532001F05AFAF9
:103570002C2001F04FFA552001F054FA822001F07E
:1035800049FA2C20FDE348457DD15521584601F0EC
:1035900059FA4FF20103AA21184601F053FA4FF2EB
:1035A00002045221204601F04DFA661C08213046E3
:1035B00001F048FAA71C0121384601F043FA0D2119
:1035C0004FF4304001F03EFA0D214BF2010001F0C2
:1035D00039FA0D214BF2020001F034FA4FF436486B
:1035E0003421404601F02EFA34214BF2016001F003
:1035F00029FA34214BF2026001F024FA4FF43149E8
:103600000D21484601F01EFA4BF2011A0D215046D9
:1036100001F018FA0D214BF2021001F013FA3421D7
:103620004FF4374001F00EFA34214BF2017001F0F3
:1036300009FA34214BF2027001F004FA00214FF430
:10364000324001F0FFF900214BF2012001F0FAF9BC
:1036500000214BF2022001F0F5F924214FF438400B
:1036600001F0F0F924214BF6010001F0EBF92421DF
:103670004BF6020001F0E6F901214FF43F4001F062
:10368000E1F90F2100E0FDE34FF4334001F0DAF9F6
:103690000F214BF2013001F0D5F90F214BF202302E
:1036A00001F0D0F934214FF4394001F0CBF9342145
:1036B0004BF6011001F0C6F934214BF6021001F06F
:1036C000C1F908214FF4354001F0BCF908214BF253
:1036D000015001F0B7F908214BF2025001F0B2F9A4
:1036E00003214FF4424001F0ADF924214FF43A4058
:1036F00001F0A8F924214BF6012001F0A3F92421BF
:103700004BF6022001F09EF900214FF43C4001F0FD
:1037100099F978214BF6014001F094F900214BF61C
:10372000024001F08FF900214FF43D4001F08AF989
:1037300078214BF6015001F085F900214BF602503B
:1037400001F080F900214FF43E4001F07BF9642143
:103750004BF6016001F076F900214FF4514001F081
:1037600071F933214DF2011001F06CF900214DF295
:10377000021001F067F934214DF2031001F062F9F3
:1037800000214DF2041001F05DF93A214DF20510CF
:1037900001F058F900214DF2061001F053F94A21C9
:1037A0004DF2071001F04EF900214DF2081001F022
:1037B00049F95C214DF2091001F044F900214DF264
:1037C0000A1001F03FF981214DF20B1001F03AF996
:1037D00000214DF20C1001F035F9A6214DF20D102B
:1037E00001F030F900214DF20E1001F02BF9E52126
:1037F0004DF20F1001F026F901214DF2101001F0E9
:1038000021F913214DF2111001F01CF901214DF2A3
:10381000121001F017F954214DF2131001F012F9B2
:1038200001214DF2141001F00DF982214DF2151015
:1038300001F008F901214DF2161001F003F9CA2137
:103840004DF2171001F0FEF802214DF2181001F0B0
:10385000F9F800214DF2191001F0F4F802214DF2AF
:103860001A1001F0EFF801214DF21B1001F0EAF8F7
:1038700002214DF21C1001F0E5F834214DF21D102B
:1038800001F0E0F802214DF21E1001F0DBF8672193
:103890004DF21F1001F0D6F802214DF2201001F078
:1038A000D1F884214DF2211001F0CCF802214DF223
:1038B000221001F0C7F8A4214DF2231001F0C2F844
:1038C00002214DF2241001F0BDF8B7214DF2251070
:1038D00001F0B8F802214DF2261001F0B3F8CF2123
:1038E0004DF2271001F0AEF802214DF2281001F040
:1038F000A9F8DE214DF2291001F0A4F802214DF2C1
:103900002A1001F09FF8F2214DF22B1001F09AF8E5
:1039100002214DF22C1001F095F8FE214DF22D10F0
:1039200001F090F803214DF22E1001F08BF81021D8
:103930004DF22F1001F086F803214DF2301001F006
:1039400081F833214DF2311001F07CF803214DF262
:10395000321001F077F86D214DF2331001F072F85A
:1039600000214FF4524001F06DF833214DF2012057
:1039700001F068F800214DF2022001F063F83421D3
:103980004DF2032001F05EF800214DF2042001F019
:1039900059F83A214DF2052001F054F800214DF27A
:1039A000062001F04FF84A214DF2072001F04AF8B5
:1039B00000214DF2082001F045F85C214DF209206C
:1039C00001F040F800214DF20A2001F03BF881217E
:1039D0004DF20B2001F036F800214DF20C2001F0E1
:1039E00031F8A6214DF20D2001F02CF800214DF206
:1039F0000E2001F027F8E5214DF20F2001F022F80A
:103A000001214DF2102001F01DF813214DF211207B
:103A100001F018F801214DF2122001F013F85421A1
:103A20004DF2132001F00EF801214DF2142001F0A7
:103A300009F882214DF2152001F004F801214DF220
:103A4000162000F0FFFFCA214DF2172000F0FAFF08
:103A500002214DF2182000F0F5FF00214DF219204F
:103A600000F0F0FF02214DF21A2000F0EBFF0121DF
:103A70004DF21B2000F0E6FF02214DF21C2000F069
:103A8000E1FF34214DF21D2000F0DCFF02214DF258
:103A90001E2000F0D7FF67214DF21F2000F0D2FF5B
:103AA00002214DF2202000F0CDFF84214DF2212093
:103AB00000F0C8FF02214DF2222000F0C3FFA42134
:103AC0004DF2232000F0BEFF02214DF2242000F031
:103AD000B9FFB7214DF2252000F0B4FF02214DF2CD
:103AE000262000F0AFFFCF214DF2272000F0AAFFE3
:103AF00002214DF2282000F0A5FFDE214DF2292001
:103B000000F0A0FF02214DF22A2000F09BFFF221DD
:103B10004DF22B2000F096FF02214DF22C2000F0F8
:103B200091FFFE214DF22D2000F08CFF03214DF27C
:103B30002E2000F087FF10214DF22F2000F082FF91
:103B400003214DF2302000F07DFF33214DF2312072
:103B500000F078FF03214DF2322000F073FF6D2159
:103B60004DF2332000F06EFF00214FF4534000F07F
:103B700069FF33214DF2013000F064FF00214DF266
:103B8000023000F05FFF34214DF2033000F05AFFA5
:103B900000214DF2043000F055FF3A214DF205307E
:103BA00000F050FF00214DF2063000F04BFF4A219B
:103BB0004DF2073000F046FF00214DF2083000F0D2
:103BC00041FF5C214DF2093000F03CFF00214DF235
:103BD0000A3000F037FF81214DF20B3000F032FF48
:103BE00000214DF20C3000F02DFFA6214DF20D30DA
:103BF00000F028FF00214DF20E3000F023FFE521F8
:103C00004DF20F3000F01EFF01214DF2103000F098
:103C100019FF13214DF2113000F014FF01214DF274
:103C2000123000F00FFF54214DF2133000F00AFF64
:103C300001214DF2143000F005FF82214DF21530C4
:103C400000F000FF01214DF2163000F0FBFECA210A
:103C50004DF2173000F0F6FE02214DF2183000F060
:103C6000F1FE00214DF2193000F0ECFE02214DF280
:103C70001A3000F0E7FE01214DF21B3000F0E2FEA9
:103C800002214DF21C3000F0DDFE34214DF21D30DA
:103C900000F0D8FE02214DF21E3000F0D3FE672165
:103CA0004DF21F3000F0CEFE02214DF2203000F028
:103CB000C9FE84214DF2213000F0C4FE02214DF2F4
:103CC000223000F0BFFEA4214DF2233000F0BAFEF6
:103CD00002214DF2243000F0B5FEB7214DF225301F
:103CE00000F0B0FE02214DF2263000F0ABFECF21F5
:103CF0004DF2273000F0A6FE02214DF2283000F0F0
:103D0000A1FEDE214DF2293000F09CFE02214DF291
:103D10002A3000F097FEF2214DF22B3000F092FE97
:103D200002214DF22C3000F08DFEFE214DF22D309F
:103D300000F088FE03214DF22E3000F083FE1021AA
:103D40004DF22F3000F07EFE03214DF2303000F0B6
:103D500079FE33214DF2313000F074FE03214DF233
:103D6000323000F06FFE6D214DF2333000F06AFE0C
:103D700000214FF4544000F065FE33214DF2014024
:103D800000E07EE300F05EFE00214DF2024000F014
:103D900059FE34214DF2034000F054FE00214DF253
:103DA000044000F04FFE3A214DF2054000F04AFE7B
:103DB00000214DF2064000F045FE4A214DF2074039
:103DC00000F040FE00214DF2084000F03BFE5C2177
:103DD0004DF2094000F036FE00214DF20A4000F09D
:103DE00031FE81214DF20B4000F02CFE00214DF2FE
:103DF0000C4000F027FEA6214DF20D4000F022FEFF
:103E000000214DF20E4000F01DFEE5214DF20F4065
:103E100000F018FE01214DF2104000F013FE1321B6
:103E20004DF2114000F00EFE01214DF2124000F063
:103E300009FE54214DF2134000F004FE01214DF221
:103E4000144000F0FFFD82214DF2154000F0FAFD14
:103E500001214DF2164000F0F5FDCA214DF2174048
:103E600000F0F0FD02214DF2184000F0EBFD0021C2
:103E70004DF2194000F0E6FD02214DF21A4000F02B
:103E8000E1FD00E000E301214DF21B4000F0DAFD0E
:103E900002214DF21C4000F0D5FD34214DF21D40B1
:103EA00000F0D0FD02214DF21E4000F0CBFD672155
:103EB0004DF21F4000F0C6FD02214DF2204000F0FF
:103EC000C1FD84214DF2214000F0BCFD02214DF2E4
:103ED000224000F0B7FDA4214DF2234000F0B2FDD6
:103EE00002214DF2244000F0ADFDB7214DF22540F6
:103EF00000F0A8FD02214DF2264000F0A3FDCF21E5
:103F00004DF2274000F09EFD02214DF2284000F0C6
:103F100099FDDE214DF2294000F094FD02214DF281
:103F20002A4000F08FFDF2214DF22B4000F08AFD77
:103F300002214DF22C4000F085FDFE214DF22D4076
:103F400000F080FD03214DF22E4000F07BFD10219A
:103F50004DF22F4000F076FD03214DF2304000F08D
:103F600071FD33214DF2314000F06CFD03214DF223
:103F7000324000F067FD6D214DF2334000F062FDEC
:103F800000214FF4554000F05DFD33214DF201500A
:103F900000F058FD00214DF2025000F053FD342195
:103FA0004DF2035000F04EFD00214DF2045000F0A0
:103FB00049FD3A214DF2055000F044FD00214DF23B
:103FC000065000F03FFD4A214DF2075000F03AFD47
:103FD00000214DF2085000F035FD5C214DF20950F2
:103FE00000F030FD00214DF20A5000F02BFD812140
:103FF0004DF20B5000F026FD00214DF20C5000F068
:1040000021FDA6214DF20D5000F01CFD00214DF2C6
:104010000E5000F017FDE5214DF20F5000F012FD9B
:1040200001214DF2105000F00DFD13214DF2115001
:1040300000F008FD01214DF2125000F003FD542163
:104040004DF2135000F0FEFC01214DF2145000F02F
:10405000F9FC82214DF2155000F0F4FC01214DF2E3
:10406000165000F0EFFCCA214DF2175000F0EAFCA8
:1040700002214DF2185000F0E5FC00214DF21950DC
:1040800000F0E0FC02214DF21A5000F0DBFC0121AF
:104090004DF21B5000F0D6FC02214DF21C5000F0F6
:1040A000D1FC34214DF21D5000F0CCFC02214DF228
:1040B0001E5000F0C7FC67214DF21F5000F0C2FCFB
:1040C00002214DF2205000F0BDFC84214DF2215020
:1040D00000F0B8FC02214DF2225000F0B3FCA42104
:1040E0004DF2235000F0AEFC02214DF2245000F0BE
:1040F000A9FCB7214DF2255000F0A4FC02214DF29D
:10410000265000F09FFCCF214DF2275000F09AFC82
:1041100002214DF2285000F095FCDE214DF229508D
:1041200000F090FC02214DF22A5000F08BFCF221AD
:104130004DF22B5000F086FC02214DF22C5000F085
:1041400081FCFE214DF22D5000F07CFC03214DF24C
:104150002E5000F077FC10214DF22F5000F072FC31
:1041600003214DF2305000F06DFC33214DF23150FF
:1041700000F068FC03214DF2325000F063FC6D2129
:104180004DF2335000F05EFC00214FF4564000F039
:1041900059FC33214DF2016000F054FC00214DF236
:1041A000026000F04FFC34214DF2036000F04AFC45
:1041B00000214DF2046000F045FC3A214DF205600B
:1041C00000F040FC00214DF2066000F03BFC4A216B
:1041D0004DF2076000F036FC00214DF2086000F05F
:1041E00031FC5C214DF2096000F02CFC00214DF205
:1041F0000A6000F027FC81214DF20B6000F022FCE8
:1042000000214DF20C6000F01DFCA6214DF20D6066
:1042100000F018FC00214DF20E6000F013FCE521C7
:104220004DF20F6000F00EFC01214DF2106000F025
:1042300009FC13214DF2116000F004FC01214DF244
:10424000126000F0FFFB54214DF2136000F0FAFB06
:1042500001214DF2146000F0F5FB82214DF2156052
:1042600000F0F0FB01214DF2166000F0EBFBCA21DB
:104270004DF2176000F0E6FB02214DF2186000F0ED
:10428000E1FB00214DF2196000F0DCFB02214DF250
:104290001A6000F0D7FB01214DF21B6000F0D2FB49
:1042A00002214DF21C6000F0CDFB34214DF21D6067
:1042B00000F0C8FB02214DF21E6000F0C3FB672135
:1042C0004DF21F6000F0BEFB02214DF2206000F0B5
:1042D000B9FB84214DF2216000F0B4FB02214DF2C4
:1042E000226000F0AFFBA4214DF2236000F0AAFB96
:1042F00002214DF2246000F0A5FBB7214DF22560AC
:1043000000F0A0FB02214DF2266000F09BFBCF21C4
:104310004DF2276000F096FB02214DF2286000F07C
:1043200091FBDE214DF2296000F08CFB02214DF261
:104330002A6000F087FBF2214DF22B6000F082FB37
:1043400002214DF22C6000F07DFBFE214DF22D602C
:1043500000F078FB03214DF22E6000F073FB10217A
:104360004DF22F6000F06EFB03214DF2306000F043
:1043700069FB33214DF2316000F064FB03214DF203
:10438000326000F05FFB6D214DF2336000F05AFBAC
:104390005521584600F056FBAA21184600F052FB62
:1043A0005221204600F04EFB0821304600F04AFB27
:1043B0000021384600F046FBCC21484600F042FB85
:1043C0000021504600F03EFB0521404600F03AFB3C
:1043D00070214FF4374000F035FB70214BF2017033
:1043E00000F030FB01214FF4384000F02BFB03219B
:1043F0004BF6010000F026FB03214BF6020000F013
:1044000021FB03214BF6030000F01CFB02214FF4BB
:104410003C4000F017FB00214BF6014000F012FB7E
:1044200000214BF6024000F00DFBD0214FF4494033
:1044300000F008FB02214CF6011000F003FB5021B4
:104440004CF6021000F0FEFA50214CF6031000F07A
:10445000F9FA50214CF6041000F0F4FA00214FF460
:10446000545000F0EFFA55214FF4685000F0EAFA8A
:104470004FF4885000F0D6FA0120FCF761FA4FF4AF
:10448000245000F0CFFAB9E05045FCD1E22000F012
:10449000C9FA1D2000F0BEFA022000F0BBFA042089
:1044A00000F0B8FA0120FCF74BFAE02000F0BAFA6D
:1044B000012000F0AFFA0A20FCF742FAE02000F0F9
:1044C000B1FA032000F0A6FA0C20FCF739FA01201B
:1044D00000F0A8FA0A20FCF733FAE62000F0A2FA6E
:1044E0002F2000F097FAFF2000F094FAFF2000F050
:1044F00091FAB02000F096FA202000F08BFA00200C
:1045000000F088FA032000F085FA40F21F3000F036
:1045100081FA012000F07EFA40F2DF1000F07AFA12
:10452000002000F077FAB42000F07CFA042000F0BC
:1045300071FA40F21F4000F06DFA002000F06AFAB4
:104540002E2000F067FA002000F064FA002000F04E
:1045500061FA002000F05EFA002000F05BFAB6205D
:1045600000F060FA022000F055FA4FF4037000F0FA
:1045700051FA002000F04EFA172000F04BFA1520F7
:1045800000F048FA002000F045FA002000F042FA5E
:10459000F02000F047FA032000F03CFA292000F058
:1045A00041FAD02000F03EFA002000F033FABE209D
:1045B00000F038FA052000F02DFAFE2000F02AFA6B
:1045C000012000F027FA002000F024FA002000F07B
:1045D00021FA002000F01EFAB82000F023FA032090
:1045E00000F018FA012000F015FABA2000F01AFACB
:1045F000012000F00FFA642000F016F80120FDF70A
:10460000E5FC04490120C1F880012846BDE8F05FBF
:10461000FDF7C4BC008040420A20401EC0B2FCD25C
:104620004FF0C2400088704710B50346BE2000F02E
:10463000F9F9052000F0EEF91846FBF778FE9FED3A
:104640000C1B53EC112BFBF700FEFBF77DFE80B239
:1046500000F0E0F9012000F0DDF9FF2000F0DAF9C8
:10466000002000F0D7F9BDE81040002000F0D2B9DA
:10467000666666666666044070B55E4B0024194641
:104680009A79898841F66316012A01D01AB10CE0A3
:10469000B14202D109E0B14207D1082805D2DFE8D2
:1046A00000F0161812140C19100E082812D2DFE8A8
:1046B00000F0110406080A0C0E1080240AE04024C1
:1046C00008E0C02406E0202404E0602402E0A024E6
:1046D00000E0E02445F21055A94202D14FF45850B1
:1046E00000E03620A1F51342413A03D0A1F5EE4295
:1046F000893A01D144F00804214600F0A3F99988D1
:10470000B1420AD0A00618885A8802D5904202D336
:1047100003E0904201D91A8058805889A94240D1BB
:1047200000F080F9002000F075F95889401C80B233
:1047300000F078F9002000F06DF95889801C80B2F3
:1047400000F070F91888401EC0F30F2000F062F9E5
:104750005889C01C80B200F065F91878401EC0B2BC
:1047600000F058F9988900F05DF9002000F052F946
:104770009889401C80B200F055F9002000F04AF9F9
:104780009889801C80B200F04DF95888401EC0F313
:104790000F2000F03FF99889C01C80B200F042F968
:1047A00021E000F03FF9002000F034F9002000F093
:1047B00031F91888401EC0F30F2000F02BF918784B
:1047C000401EC0B200F026F9988900F02BF90020B5
:1047D00000F020F9002000F01DF95888401EC0F3B9
:1047E0000F2000F017F99878BDE87040401EC0B265
:1047F00000F010B99C010020F0B53B4B0D4604467B
:10480000060A998818462F0A4089A1F5C852633ACA
:1048100016D0A1F5AA42103A4CD000F003F9304668
:1048200000F0F8F8E0B200F0F5F8988900F0FAF836
:10483000384600F0EFF8E8B2BDE8F04000F0EAB822
:10484000997931B300F0EEF8304600F0E3F8E0B2C9
:1048500000F0E0F81888401EC0F30F2000F0DAF8EE
:104860001878401E5FFA80F000F0D4F8988900F0C4
:10487000D9F8384600F0CEF8E8B200F0CBF8588806
:10488000401EC0F30F2000F0C5F89878401EC0B25B
:10489000D2E71988091B491E8CB200F0C3F800202A
:1048A00000F0B8F8002000F0B5F8200A00F0B2F8E7
:1048B000E0B2D9E700F0B6F8304600F0ABF858891E
:1048C000401C80B200F0AEF8E0B200F0A3F8988986
:1048D00000F0A8F8384600F09DF89889401C80B296
:1048E00000F0A0F8A7E700009C0100202DE9FF4F91
:1048F0001D460C468A46580700D0012000EBD50023
:10490000690810FB01F0203A00F0FF09D0B2002640
:10491000DFF898B0029045E00C2D11D0102D14D086
:10492000182D41D10298224900EBC00001EB800014
:104930004FF00008875D38060CD51E4800880DE052
:1049400002981D4900EB4000F0E71C49029801EB7A
:104950000010EDE70D9830B916488088214682B2E4
:104960000098FDF78FFB7806070E641CBBF8020069
:10497000A4B2A04218D9A4EB0A00A84209D1009819
:104980005446401C80B20090BBF8001081420BD905
:1049900006E008F1010000F0FF08B8F1080FCAD3E3
:1049A000761CF6B24E45B7D3BDE8FF8F9C010020C0
:1049B000C06F0008180000205C650008D06900087E
:1049C0002DE9F84F044600F0FF0910190D46DDE906
:1049D0000AB61FFA80F8581987B24FF0000A12E0A1
:1049E000444503D305EB0B004C4685B2BD420FD2C4
:1049F0005B4629462046CDF800A0FFF777FF04EB81
:104A00005B0084B2761C3278A2F120005E28E7D9E0
:104A1000BDE8F88F0A21491EC9B2FCD24FF0C2414D
:104A2000088070470A21491EC9B2FCD24FF0C0412C
:104A30000880704702484FF0C041008908807047E5
:104A40009C0100204FF0C04210804FF0C240018016
:104A500070470FB470B58EB014460D46064616AAC0
:104A600002A8159901F032F802A8CDE900404FF4F0
:104A7000C072102329463046FFF7A2FF0EB070BC6B
:104A80005DF814FB30B58FB01C216846FBF7D2FBF4
:104A90001C2107A8FBF7CEFB19484FF0204110223C
:104AA00001601849416000218160C160C0E90412C1
:104AB0008161C16113020162C0E909139302C0E977
:104AC0000B1341638163416403200F23CDE900038D
:104AD00002AD0C20112485E817000425CDE9061548
:104AE00009AD089385E817000D9107AA69460448A7
:104AF000FDF761F8002801D0FBF750FE0FB030BD84
:104B000028000020040100A02DE9F04387B0142103
:104B10006846FBF78FFB32480025016841F0100121
:104B20000160016801F010010591016841F0800108
:104B30000160016801F080010591016841F0020106
:104B40000160016801F002010591016841F008016E
:104B50000160016801F008010591016841F004015C
:104B60000160016801F004010591016841F0010153
:104B700001600068DFF86C8000F001000122059000
:104B800011464046FCF720F84FF480570022394682
:104B90004046FCF719F8DFF8509000220321484600
:104BA000FCF712F8012401AA0226009482E87000A2
:104BB00069464046FBF710FFCDE900740327CDE9B5
:104BC000025769464046FBF707FF01AA009782E8B3
:104BD000700069464846FBF7FFFE07B0BDE8F0836A
:104BE0003038024000040240001002400F4810B567
:104BF0000D490160002141608160C1600161416136
:104C000022218161FCF79EFD08B1FBF7C7FD4FF43F
:104C100000610648FCF722FB002803D0BDE81040E5
:104C2000FBF7BCBD10BD0000002C01407800002047
:104C30000F4810B50D4901604FF4827141600021A9
:104C40008160C1604FF400720161C0E90512C16169
:104C50000162416281620A21C162FCF721FE0028E3
:104C600003D0BDE81040FBF799BD10BD00380040EF
:104C7000FC0000200C4810B50A4901604FF4E131F6
:104C80004160002181600C22C160C0E90412816191
:104C9000C161FDF70FF9002803D0BDE81040FBF714
:104CA0007DBD10BD0010014054010020FEE7FEE76D
:104CB00070470A6842624A688262D1E902231A4355
:104CC000D1E904310B43C16A1A4321F0F7011143C2
:104CD000C16200207047006800F00300704708447C
:104CE000406970470148FCF729BC000078000020AB
:104CF00070B50DF1100C11439CE87000234319436B
:104D000029434268314347F6FF639A430A434260AE
:104D1000002070BD0321016000207047D0F88000A2
:104D200070470A688260D1E901231A43D1E903314F
:104D30000B43C1681A436FF30B011143C16000209C
:104D400070470968C0F880100020704710B585B022
:104D500004463720CDE90010402002900020039047
:104D60004FF48060049069462046FFF7DAFF41F275
:104D700088323721204600F037F905B010BD000019
:104D800010B504460A4885B001432920CDE900103A
:104D900040200290002003904FF480600490694608
:104DA0002046FFF7BEFF204600F0D6F905B010BD43
:104DB0000000108010B585B004461020CDE9001029
:104DC00040200290002003904FF4806004906946D8
:104DD0002046FFF7A6FF41F288321021204600F05E
:104DE00003F905B010BD10B585B004460620CDE925
:104DF000001040200290002003904FF48060049047
:104E000069462046FFF78DFF41F288320621204691
:104E100000F0EAF805B010BD30B585B000240546B5
:104E2000009401944FF480600294CDE903406946F8
:104E30002846FFF776FF0B484FF4FA510068B0FBA5
:104E4000F1F041F288314843401E03D24FF0004058
:104E500005B030BD696B0906F6D5C520A8632046AC
:104E6000F6E700001400002010B585B004464FF4AA
:104E7000D5700090082001904020029000200390FF
:104E80004FF48060049069462046FFF74AFF2046B1
:104E900000F0C8F905B010BD10B585B00446072074
:104EA000CDE9002040200290002003904FF4806064
:104EB000049069462046FFF734FF41F2883207210B
:104EC000204600F091F805B010BD10B585B004463D
:104ED00000210220CDE90010C020CDE902014FF4ED
:104EE0008060049069462046FFF71BFF204600F0D3
:104EF0000BF905B010BD10B585B004460920CDE909
:104F00000010C0200290002003904FF480600490B5
:104F100069462046FFF705FF204600F0F5F805B08A
:104F200010BD10B585B0044600213320CDE9001036
:104F30004020CDE902010001049069462046FFF7B8
:104F4000F0FE41F288323321204600F04DF805B0E2
:104F500010BD10B585B004460D20CDE900104020ED
:104F60000290002003904FF4806004906946204630
:104F7000FFF7D7FE41F288320D21204600F034F8C9
:104F800005B010BD30B585B00C46054600210320A4
:104F9000CDE900104020CDE90201000104906946EE
:104FA0002846FFF7BEFE22460321284600F0F6F809
:104FB00005B030BD10B585B0044600210C20CDE908
:104FC00000104020CDE9020100010490694620460E
:104FD000FFF7A7FE034A0C21204600F005F805B0B4
:104FE00010BD000000E1F505454B10B51B684FF4FE
:104FF000FA54B3FBF4F353435B1E02D24FF000406C
:1050000010BD426B12F0450FF6D01205F4D4426B7E
:10501000520703D504218163084610BD426BD207B5
:1050200002D00121816305E0C52282630269D2B208
:105030008A4201D0012010BD0021FFF750FE314906
:10504000084201D1002010BD002802DA4FF00070A4
:1050500010BD410001D5402010BD810001D5802048
:1050600010BDC10002D54FF4807010BD010102D502
:105070004FF4007010BD410102D54FF4806010BDA7
:10508000C10102D54FF4006010BD010202D54FF4FA
:10509000805010BD410202D54FF4005010BD810276
:1050A00002D54FF4804010BDC10202D54FF400403C
:1050B00010BD410302D54FF4003010BD810302D56D
:1050C0004FF4802010BDC10302D54FF4002010BD65
:1050D000010402D54FF4801010BD410402D54FF4F5
:1050E000001010BD810402D54FF4800010BD0007F0
:1050F00002D54FF4000010BD4FF4803010BD000009
:105100001400002008E0FFFD12494FF4FA5209682C
:10511000B1FBF2F141F288325143491E02D24FF005
:1051200000407047426B12F0450FF6D01205F4D4E0
:10513000416B490703D50421816308467047416BE1
:10514000C90703D00121816308467047C5218163E7
:1051500000207047140000200F494FF4FA520968EC
:10516000B1FBF2F141F288325143491E02D24FF0B5
:1051700000407047426B12F0450FF6D01205F4D490
:10518000416B490703D50421816308467047C52157
:1051900081630020704700001400002030B5204BD0
:1051A0004FF4FA541B68B3FBF4F341F288346343C1
:1051B0005B1E02D24FF0004030BD446B14F0450F2F
:1051C000F6D02405F4D4436B5B0703D50421816337
:1051D000084630BD436BDB0702D00121816303E049
:1051E0000369DBB28B4201D0012030BDC521816350
:1051F0000021FFF774FD10F4604F04D0410406D580
:105200004FF4005030BD000C1080002030BD000471
:1052100002D54FF4805030BD4FF4803030BD0000D7
:105220001400002014494FF4FA520968B1FBF2F15E
:1052300041F288325143491E02D24FF0004070477C
:10524000426B12F0450FF6D01205F4D4416B4907BA
:1052500003D50421816308467047416BC90703D019
:105260000121816308467047416B490601D5402101
:1052700081630020704700001400002010B5846B8B
:1052800040F23A50216888632046FCF741F9012139
:1052900084F8341000212163062801D0052805D1A7
:1052A0002068FFF787FEA16B0843A063A06B00286E
:1052B000204602D0FCF75EF810BDFBF7CDFF10BD15
:1052C00010B5846B40F23A50216888632046FCF7A1
:1052D0001FF9012184F8341000212163062801D030
:1052E000052805D12068FFF765FEA16B0843A06380
:1052F000A06B0028204602D0FCF73CF810BDFBF75D
:10530000ABFF10BD2DE9F04788B00D460446FBF712
:1053100061FC0026824600960196374608212068E7
:10532000FFF748FD00282CD1B4F850000104206894
:10533000FFF70CFD002824D1401E4FF00808CDE9EE
:10534000020830204FF00209CDE904090120CDE91F
:10535000067002A92068FFF7ACFC2068FFF7E1FDAA
:1053600000280ED16F462068416B11F02A0F0BD038
:10537000416B090702D4416B89051AD5C0F8388002
:10538000082008B0BDE8F087416B890205D5FFF71A
:10539000C5FC47F82600761C02E0416B8904E7D57E
:1053A000FBF718FCA0EB0A00401CDCD14FF00040DA
:1053B000E7E7416B890703D5C0F838900220E0E7A2
:1053C000416B890603D5202181630846D9E740F265
:1053D0003A518163019800BA2860009800BA686069
:1053E0000020CEE710B590B004460120ADF838009B
:1053F0002068FFF770FC002854D0606C032842D06E
:105400002068FFF762FD00284AD100212068FFF7DD
:1054100066FC606704212068FFF761FCA067082133
:105420002068FFF75CFCE0670C212068FFF757FC61
:10543000C4F88000606C032825D00EA92068FFF70F
:10544000A1FD00282CD1606C03281CD0BDF83800C9
:10545000206501042068FFF74EFD002820D10021BF
:105460002068FFF73CFC606604212068FFF737FCEA
:10547000A06608212068FFF732FCE0660C21206856
:10548000FFF72DFC206704212068FFF728FC000DA2
:10549000E06403A92046FBF76FFF30B14FF0805066
:1054A00010B010BD4FF08060FAE7B4F85000002350
:1054B00002042068FFF7F0FC0028F1D104F110008D
:1054C00007C88DE8070094E80F00FFF711FC0020E3
:1054D000E6E700002DE9F84F002604460096354621
:1054E000B0460068FFF798FC002827D12068FFF736
:1054F000BBFC4FF0805B4FF001094FF6FF7748B1DE
:10550000A6642068FFF788FC002817D1A06C01284A
:1055100002D020E0C4F8489000212068FFF716FC74
:1055200058B918E000212068FFF710FC002805D1C9
:1055300051462068FFF724FC10B15846BDE8F88FAB
:1055400000212068FFF7CBFB05464FEAD078009892
:10555000401C009002E0DFF82CA00098B84202D274
:10556000B8F1000FDED00098B84202D34FF080703F
:10557000E4E7680002D5C4F8449000E066640020C7
:10558000DCE70000000010C101B582B04FF47A7072
:105590000090012301AA02A90248FCF715FA9DF820
:1055A00004000EBDFC0000200B4910B50A6813680A
:1055B00023F0400313600A6813684FF6C774234052
:1055C00013600A681368034313600868016841F0B8
:1055D0004001016010BD0000FC000020F8B5154638
:1055E0000E460B46009204460122022100F02CF8E0
:1055F000A0B9134813490068B0FBF1F04FF47A7179
:10560000484300906068B0F5827F0DD13346002298
:1056100080212046009500F017F870B1606D40F0D1
:10562000200060650320F8BD009830B1401E009056
:1056300020688068C0430006F6D50020F8BD000051
:105640001400002000366E012DE9F8431E469146F5
:1056500088460446089DFBF7BDFA401B351AFBF748
:10566000B9FA074625480068C0F3CB30684338E0F4
:10567000701C37D0FBF7AEFAC01BA84203D215B19D
:10568000009860B32CE02068416821F0E00141609F
:105690006068B0F5827F0BD1A068B0F5004F02D0F2
:1056A000B0F5806F04D12068016821F040010160ED
:1056B000A06AB0F5005F09D12068016821F40051AB
:1056C00001602068016841F400510160012084F804
:1056D0005100002084F850000320BDE8F883002525
:1056E000401E00902068816838EA010004D0002143
:1056F0004945BDD10020F0E70121F9E71400002061
:105700007047FBF76DBA000030B593B030216846A2
:10571000FAF790FD14210CA8FAF78CFD1D4800251E
:10572000016841F080510160006800F080501190E4
:105730001948016841F4804101600068022400F4C6
:105740008040119001200390102004900094069452
:105750000820CDE90750A820CDE9090404200B90CA
:105760006846FBF7C3FB08B172B6FEE70CA90F2031
:1057700081E831004FF4A0500F904FF4805010900A
:1057800005210CA8FBF7C6FA002801D072B6FEE787
:1057900013B030BD4038024000700040024801683C
:1057A00041F470010160704788ED00E010B5806B36
:1057B0000021C185C184FCF743FA10BD01680C319A
:1057C00051E8002F22F4907241E80023002BF5D11C
:1057D0000168143151E8002F22F0010241E8002352
:1057E000002BF5D1016B012909D101680C3151E879
:1057F000002F22F0100241E80023002BF5D12021D8
:1058000080F8421000210163704708B590F84210FB
:10581000222901D0022008BD82684FF480539A42A9
:1058200001D1016921B1816A9A421BD04AB10AE0D3
:105830000268816A5268C2F308020A80816A891C80
:1058400008E0026972B10268526802F07F020A70D1
:10585000816A491C8162C18D491E0904090CC185F8
:1058600003D01BE002685268F1E70168CA6822F0C1
:105870002002CA600168CA6822F48072CA600168A6
:105880004A6922F001024A61202180F84210002179
:105890004163026B012A03D0FCF77CFB002008BDAA
:1058A000016301680C3151E8002F22F0100241E839
:1058B0000023002BF5D101680A68D20602D50A68D8
:1058C00049680091818DFCF7BAF9E7E770B50446A5
:1058D00000680169E26821F44051114301612169C6
:1058E000A068E26908436169114308432168CA68F6
:1058F00049F20C639A430243CA6020684169A26975
:1059000021F440711143416131492068884202D03D
:105910003049884202D1FBF7A7FA01E0FBF794FA7D
:10592000E2690023192164253226B2F5004F62682E
:1059300028D0A0FB0101930F9200FAF743FC014627
:10594000B0FBF5F06FF01802504301EB800006EB5E
:105950000010B0FBF5F000F0F002B1FBF5F002EB47
:105960000012B1FBF5F06FF01803584301EB800013
:1059700006EB0010B0FBF5F000F00F0021681044BA
:10598000886070BDA0FB010192185B41FAF71AFC18
:105990000146B0FBF5F00201B1FBF5F06FF0180322
:1059A000584301EB800006EBC000B0FBF5F000F0BF
:1059B000F80002EB4002B1FBF5F0584301EB800028
:1059C00006EBC000B0FBF5F000F00700D6E70000E2
:1059D00000100140001401400148FCF733B90000F9
:1059E00054010020FEE7000070B50F4C0125C4F8FB
:1059F000B051FFF71DF90020FFF7D6FD00F018F8B1
:105A00000A490880A0F5A44117390BD1032000F002
:105A100031F8C00706D1C4F8B001B720FFF7B4FDD4
:105A2000C4F8B05170BD0000008040422400002046
:105A300070B50F4C0025C4F8B051902004F5D8740F
:105A4000FFF7A2FD0020FFF79FFD0020FFF79CFD60
:105A50000020FFF799FDFF20FFF796FD45EA00259E
:105A6000FF20FFF791FD28430121216070BD000058
:105A70000080404210B5012803D0022803D003283B
:105A800003D0052002E0352000E01520064C00215F
:105A9000C4F8B01104F5D874FFF776FDFF20FFF7C6
:105AA00073FD0121216010BD008040420FB4054B01
:105AB00010B503A9044A029800F0FCF810BC5DF888
:105AC00014FB0000C56300082000002037B5144611
:105AD0000846064B6A46214600F0ECF80446694643
