:020000040800F2
:100000009808002029020008D31C0008251A0008BF
:10001000D11C00081F0400088D2700080000000004
:10002000000000000000000000000000A9240008FB
:100030002104000800000000D51C0008AB240008C3
:10004000430200084302000843020008430200087C
:10005000430200084302000843020008430200086C
:10006000430200084302000843020008430200085C
:10007000430200084302000843020008430200084C
:10008000430200084302000843020008430200083C
:10009000430200084302000843020008430200082C
:1000A000430200084302000843020008430200081C
:1000B000430200084302000843020008430200080C
:1000C00043020008430200084302000843020008FC
:1000D0004302000881270008430200084302000889
:1000E00043020008430200084302000843020008DC
:1000F00043020008430200084302000843020008CC
:1001000043020008430200084302000843020008BB
:1001100043020008430200084302000843020008AB
:10012000430200084302000843020008430200089B
:10013000430200084302000843020008430200088B
:10014000430200084302000843020008430200087B
:10015000430200084302000843020008430200086B
:10016000430200084302000843020008430200085B
:100170004302000843020008430200080000000098
:10018000430200084302000800F002F800F03CF8C7
:100190000AA090E8000C82448344AAF10107DA45E2
:1001A00001D100F031F8AFF2090EBAE80F0013F0F8
:1001B000010F18BFFB1A43F0010318476426000023
:1001C00084260000103A24BF78C878C1FAD85207B4
:1001D00024BF30C830C144BF04680C6070470000C1
:1001E0000023002400250026103A28BF78C1FBD840
:1001F000520728BF30C148BF0B6070471FB502F0DF
:10020000FDFA1FBD10B510BD00F0CFF81146FFF785
:10021000F5FF02F0CDFA00F0EDF803B4FFF7F2FFBE
:1002200003BC00F0F5F80000094880470948004782
:10023000FEE7FEE7FEE7FEE7FEE7FEE7FEE7FEE796
:10024000FEE7FEE704480549054A064B70470000F3
:100250004525000889010008980200209808002020
:10026000980400209804002053EA020C00F06980F2
:100270002DE9F04B4FF00006002B1FBFB3FA83F5BA
:1002800003FA05F424FA05F65E4012BF1643B2FAEB
:1002900082F502FA05F4C5F120051EBF22FA05FC1D
:1002A00044EA0C04203556EA044C4FEA144418BFC3
:1002B000641C4FF000084FF00009904271EB030CF2
:1002C00039D3002919BFB1FA81F701FA07F6B0FA5C
:1002D00080F700FA07F6C7F120071EBF20FA07FCD7
:1002E00046EA0C062037B6FBF4FCA7EB0507103FE7
:1002F00007F01F0BCBF120060CFA0BFB2CFA06F6CD
:1003000044BFB3460026202FA4BF5E464FF0000B2B
:100310005BEA060C08BF4FF0010B19EB0B09ABFBB6
:10032000027C48EB0608C01B06FB02CC0BFB03CC8F
:1003300071EB0C01C1E70B46024641464846BDE859
:10034000F08B13B54FF000004FF00001AFF30080C9
:10035000BDE81C4070474FF0000200B513469446BC
:100360009646203922BFA0E80C50A0E80C50B1F10D
:100370002001BFF4F7AF090728BFA0E80C5048BF21
:100380000CC05DF804EB890028BF40F8042B08BFBF
:10039000704748BF20F8022B11F0804F18BF00F8BB
:1003A000012B7047704770477047754600F02CF876
:1003B000AE4605006946534620F00700854618B052
:1003C00020B5FFF73FFFBDE820404FF000064FF09B
:1003D00000074FF000084FF0000B21F00701AC467A
:1003E000ACE8C009ACE8C009ACE8C009ACE8C00999
:1003F0008D46704710B50446AFF300802046BDE837
:100400001040FFF70ABF0000004870473802002084
:1004100001491820ABBEFEE7260002007047FEE748
:10042000704772B6FEE7000030B5B3F5804F05D0D7
:100430006FF0704140F82210002030BD8C690B68CD
:100440008D6823434C688989240144EA05242343A9
:1004500043EA014150F82230014C23401943E9E7B7
:100460000000F0CF10B50A6850F8223023F00103E5
:1004700040F822308C68082C23D000234A6822439D
:10048000CC681C430B6922431A434B690E4C1A4338
:10049000CB691A430B6A1A434B6A1A438B6A1A4395
:1004A000CB6A1A430B6B1A438B691343CA6B0968F7
:1004B0001A4350F82130A343134340F82130002061
:1004C00010BD4023DAE700007FFF0F0030B5D1E90F
:1004D000003443EA04138C688D89240244EA0544FD
:1004E00023430C8A094D00EB820005EB045423439F
:1004F0000C7D6D0105EB0464896923430B4341685E
:1005000001F040410B434360002030BD0000F0FF8C
:100510002DE9F0410446876D00F0A8F9064694F8ED
:1005200035000025022806D08020606584F834500C
:100530000120BDE8F0812068016821F0160101600A
:100540002068416921F080014161206C08B9A06CEC
:1005500020B12068016821F008010160206801686D
:1005600021F0010101600CE000F080F9801B0528FA
:1005700007D920206065032084F8350084F83450C2
:10058000D7E720680068C007EED194F85C103F20E0
:100590008840B860012084F8350084F83450002089
:1005A000C7E790F83510022903D08021416501206A
:1005B0007047052180F835100068016821F00101BD
:1005C000016000207047000070B5044600F04EF94D
:1005D0000546601C02D004480078044400F046F947
:1005E000401BA042FAD370BD08000020F0B587B0D0
:1005F00014216846FFF7AFFE15480168002924D191
:100600000121016013480024016841F001010160EB
:100610000068022500F0010005904FF68470CDE9D6
:10062000000502AA03260C2782E8D00069460A4882
:1006300000F016F84CF2B370CDE9000502AA694645
:1006400082E8D000054800F00BF807B0F0BD0000CC
:10065000000000203838024000100240000C024028
:100660002DE9F84FDFF8BCA10022012503264FF049
:100670000F090AF1040BAAF1040E00BF0B6805FA7A
:1006800002F42340A34270D10F7907F00307012F32
:1006900001D0022F16D187684FEA420806FA08FCFB
:1006A00027EA0C07D1F80CC00CFA08FC4CEA070C3E
:1006B000C0F808C04768A7430C79C4F300149440FD
:1006C0003C4344600C79E443A4070AD0C4684FEA71
:1006D000420C06FA0CF7BC438F6807FA0CF7274365
:1006E000C7600C7904F00304022C12D1D40800EB8B
:1006F000840CDCF820405707FF0E09FA07F824EABB
:100700000804D1F8108008FA07F848EA0408CCF881
:10071000208004684FEA420C06FA0CF7BC430F79BC
:1007200007F0030707FA0CF7274307604C6814F437
:10073000403F70D03C4C276847F4804727602468CE
:1007400022F0030704F480440094384C07EB040CB7
:10075000DCF8084897074FEA177809FA08F7BC430E
:10076000334FB84202D1002724E054E0314FB84261
:1007700001D101271EE0304FB84201D1022719E014
:100780002E4FB84201D1032714E02D4FB84201D1BA
:1007900004270FE02B4FB84201D105270AE02A4F6A
:1007A000B84201D1062705E0284FB84201D10727FA
:1007B00000E0082707FA08F72743CCF80878DAF8AA
:1007C00000405746D1F804C09C435FEACC2C00D5CA
:1007D0001C433C60DBF800405F46D1F804C09C43FA
:1007E0005FEA8C2C00D51C433C60DEF80040774665
:1007F000D1F804C09C435FEA8C3C00D51C433C60AC
:10080000084F083F3C68D1F804C09C435FEACC3CE9
:1008100000D51C433C60521C102AFFF42FAFBDE8EA
:10082000F88F0000083C014044380240003001408D
:10083000000002400004024000080240000C024098
:10084000001002400014024000180240001C024048
:10085000426921EA02030A4043EA0241816170478A
:100860000AB1816170470904FBE700000148806814
:10087000704700000800002070B5040025D094F8EF
:100880003D00002520B984F83C50204600F0B8F81F
:10089000242084F83D002068016821F001010160F6
:1008A0002068016841F4004101602068016821F47A
:1008B0000041016000F00CFA4D4A6168914201D894
:1008C0004C4900E04C49884201D2012070BD4B499F
:1008D0002368B0FBF1F15E6826F03F060E435E60D0
:1008E0006368934206D94FF4967359434FF47A7371
:1008F000B1FBF3F12368491C1E6A26F03F06314321
:1009000019626168914210D84900401EB0FBF1F2B3
:10091000521CC2F30B02042A01D2042022E0B0FBD5
:10092000F1F0401CC0F30B001CE0A268F2B301EB35
:10093000C10303EB0116431EB3FBF6F35B1C43F448
:1009400080431B0549D092B301EBC10202EB0111B8
:10095000401EB0FBF1F0401CC0F30B0040F480409F
:1009600040F400402168CA694CF6FF739A43104373
:10097000C861D4E9071001432068026822F0C00270
:1009800011430160D4E9030101432068826848F201
:10099000FF339A4311438160D4E90501084321687C
:1009A000CA6822F0FF021043C86001E00EE016E0C2
:1009B0002068016841F0010101602564202084F86D
:1009C0003D00256384F83E50002070BD01EB4106D8
:1009D000431EB3FBF6F35B1CB3E70120C2E701EB58
:1009E0004101401EB0FBF1F0401CC0F30B00B7E723
:1009F000A086010080841E0000093D0040420F00D7
:100A000010B586B0044614216846FFF7A4FC1349CC
:100A10002068884220D112480021026842F0020278
:100A20000260006800F002000590C02000901220D3
:100A3000CDE9010103200390042004906946094890
:100A4000FFF70EFE06481030016841F40011016006
:100A5000006800F40010059006B010BD005400407E
:100A60003038024000040240024881680278114494
:100A700081607047080000200B4810B5016841F400
:100A800000710160016841F480610160016841F416
:100A900080710160032000F06FF80F2000F006F86D
:100AA00000F024F8002010BD003C024070B50D4D50
:100AB00004464FF47A712878B1FBF0F00A490968CE
:100AC000B1FBF0F000F0EEFD48B9102C07D2002287
:100AD0002146501E00F030F800206C6070BD0120EF
:100AE00070BD000008000020140000200A4808B56E
:100AF000016841F480410160006800F4804000908A
:100B00000548001F016841F080510160006800F055
:100B10008050009008BD000044380240002809DBE6
:100B200000F01F02012191404009800000F1E02007
:100B3000C0F8001170470000F0B40E4B1B680C4663
:100B4000C3F30223C3F10705042D00D90425191DA1
:100B5000072901D2002300E0DB1E012606FA05F179
:100B6000491E214099409E40761E16403143F0BCFC
:100B700001F00DBE0CED00E0064900F00702086828
:100B80004FF6FF03184040EA0220034A1043086072
:100B9000704700000CED00E00000FA052DE9F04779
:100BA0000E46050065D0DFF81481D8F80000F7B2D2
:100BB00000F00700B04207D288F80070D8F80000B3
:100BC00000F00700B04254D128683D4C810712D58F
:100BD000400703D5206840F4E050206028780007E3
:100BE00003D5206840F4604020602068A96820F0A8
:100BF000F000084320602878C0072DD0304968688D
:100C00000839012812D0022813D0032811D009680E
:100C1000890700292DDA216821F0030101432160B1
:100C2000FFF724FE814641F2883A0EE00968890305
:100C3000EFE709688901ECE7FFF718FEA0EB09016F
:100C4000514502D90320BDE8F0872068696800F0AB
:100C50000C00B0EB810FEFD1D8F80010404601F046
:100C60000701B14207D90770006800F00700B042E1
:100C700001D00120E7E72878400705D52068E9681A
:100C800020F4E050084320602878000706D520684B
:100C9000296920F4604040EAC100206000F038F883
:100CA0002168084AC1F30311515CC8400649086035
:100CB00006480068FFF7FAFE0020C4E7003C024047
:100CC0000838024006280008140000200C0000200C
:100CD0000448054900680968044AC1F38221515C4F
:100CE000C840704714000020083802401628000849
:100CF0000448054900680968044AC1F34231515C5F
:100D0000C840704714000020083802401628000828
:100D1000154810B5006810F00C02144813D014499F
:100D2000042A0FD0082A0ED10F4C241F22682368F2
:100D300002F03F025B0207D52068C0F38810A0FBD9
:100D4000010106E0084610BD2168C1F38811A1FB2E
:100D500000010023FFF788FA2168C1F30141491C13
:100D60004900B0FBF1F010BD083802400024F40047
:100D700040787D012DE9F84F04006ED02078DFF82F
:100D80004C93C007A9F104054AD009F10400016899
:100D9000C1F38101012908D00068C0F38100022855
:100DA0000AD1D9F80000400206D52868800337D55B
:100DB00060680028E1D033E06068B0F5803F10D073
:100DC000B0F5A02F286810D020F480302860286863
:100DD00020F4802028606068A8B1FFF747FD064630
:100DE0000DE0286840F48030F4E740F4802028606B
:100DF000F7E700BFFFF73AFD801B642873D8286827
:100E00008003F7D50CE0FFF731FD064605E000BF93
:100E1000FFF72CFD801B6428F0D828688003F7D4E6
:100E20002078DFF8AC8280074FF0000A3ED5A74853
:100E3000001D016811F00C0F08D00068C0F381009C
:100E400002280BD1D9F80000400207D42868800797
:100E500016D5E068012800D112E033E1E068B8B1AE
:100E60000120C8F80000FFF701FD064605E000BFBD
:100E7000FFF7FCFC801B0228C0D828688007F7D544
:100E80002868216920F0F80040EAC10028600DE0E0
:100E9000C8F800A0FFF7EAFC064604E0FFF7E6FC0E
:100EA000801B02281FD828688007F7D42078000705
:100EB00022D5864F87486169703771B10121016081
:100EC000FFF7D4FC064604E0FFF7D0FC801B0228A5
:100ED00009D838688007F7D50EE0C0F800A0FFF702
:100EE000C5FC064605E082E0FFF7C0FC801B022837
:100EF0007DD838688007F7D42078400768D5DFF8B8
:100F0000CCB100270BF13C0BDBF80000C0000BD488
:100F1000DBF8001041F08051CBF80010DBF8000046
:100F2000012700F0805000906B4E3068C00510D44F
:100F3000306840F480703060FFF798FC009005E066
:100F4000FFF794FC0099401A022850D83068C00579
:100F5000F6D55E4EA0686C3601280FD005283068A3
:100F600010D020F001003060306820F004003060C4
:100F7000A068B8B1FFF77AFC00900FE0306840F04D
:100F80000100F4E740F004003060F7E7FFF76EFC83
:100F90000099411A41F28830814266D83068800752
:100FA000F4D50EE0FFF762FC009007E0FFF75EFC6F
:100FB0000099411A41F28830814256D83068800742
:100FC000F4D42FB1DBF8001021F08051CBF80010E1
:100FD000A069C8B33D49091D0968C1F3810102290F
:100FE0004AD00228504607D0C8F8600000E03CE034
:100FF000FFF73CFC04463BE04746C8F86000FFF7BB
:1010000035FC064605E000BFFFF730FC801B0228D8
:101010002BD828688001F7D4D4E907010843A16AD6
:101020002E4A490802EB0141626A41EA82110843F3
:1010300094F82C1040EA0161C9F8001001203866CC
:10104000FFF714FC044606E03EE000BFFFF70EFC8D
:10105000001B022809D828688001F7D534E000BFBA
:10106000FFF704FC001B022802D90320BDE8F88F1B
:1010700028688001F4D427E00128F7D0D9F80000CF
:10108000E26900F4800191421CD1226A00F03F0124
:10109000914217D147F6C071626A0140B1EB821FDD
:1010A00010D1A26A4FF0FF3300F4403103EB52023B
:1010B000B1EB024F06D194F82C1000F07060B0EB49
:1010C000016F01D00120D1E70020CFE704380240B2
:1010D00000004742800E4742007000400000FFFFC2
:1010E0002DE9FE430446002603200D4684F8340013
:1010F000606C03285ED0B5F5805F5BD04FF400676D
:1011000000204FF08068BD421FD1814600900190C1
:101110000021206800F0F5FD800113D469462046C7
:1011200001F080F807000DD10198400334D5B4F8E0
:1011300050000104206800F010FE070002D10221D7
:10114000206823E0A06B384328E01DB1A06B40F07D
:10115000006023E08146009001900021206800F0AB
:10116000D0FD8001EED46946204601F05BF807000F
:10117000E8D10198C0030FD5B4F8500001042068ED
:1011800000F0EBFD0700DDD10021206800F031FE0A
:101190000700D7D14F46D5E74746D3E7A063A06BFA
:1011A000144F4FF0010848B12068876384F83480F9
:1011B00001260EE0A06B40F08050EFE7211DD4E93E
:1011C000050C0EC9CDE90050CDF808C0206800F02C
:1011D0009BFD4FF40071206800F0F2FD28B12168FA
:1011E0008F63A16B0143A163012684F834803046EC
:1011F000BDE8FE83FF054000F0B5426E920F0A7015
:10120000426EC2F383624A70426EC2F301628A7018
:10121000426E120CCA70B0F86420120A0A7190F87B
:1012200064204A71826E120DCA80826EC2F303423C
:101230000A72B0F86820C2F3C0324A72B0F868206F
:10124000C2F380328A72B0F86820C2F34032CA72A8
:10125000B0F86820C2F300320A7300264E73426C65
:101260004FF40075012462B1012A3AD0026847495F
:101270009163816B41F08051816380F8344001209B
:10128000F0BDB0F86820C36E9205120D42EA937269
:101290000A61C26EC2F3C2620A75C26EC2F3026212
:1012A0004A75C26EC2F342528A75C26EC2F382425E
:1012B000CA75C26EC2F3C2320A760A69521C42650E
:1012C0000B7E03F007039B1C9A4042650B7A03F0E8
:1012D0000F0704FA07F383655B0A5A43C0E9172531
:1012E0000EE090F86820C36E9206920A42EA13421A
:1012F0000A610A69521C92024265C0E916520566EB
:1013000030F86C2FC2F3803201F8192F0288C2F333
:10131000C6124A70027802F07F028A704268D20FC9
:10132000CA704268C2F341720A714268C2F38262B3
:101330004A714268C2F383528A714268C2F34052D2
:10134000CA710E724268C2F300424A728288C2F3C6
:10135000C0328A728288C2F38032CA728288C2F333
:1013600040320A738288C2F300324A738288C2F321
:1013700081228A738288C2F30122CA730079C0F382
:10138000460008744C740020F0BD0000FF054000CA
:1013900070B504000ED094F83400002518B92577F4
:1013A000204600F04FF8032084F83400204600F077
:1013B0000BF808B1012070BDA5632563012084F8F6
:1013C0003400002070BD0000FEB5002504467620E4
:1013D0000095CDE9015029460B460A46206800F0E9
:1013E00093FC48BB154E46F8A05F206800F09EFCB9
:1013F000012535600220FFF7E7F8204600F0FAFFEC
:1014000030B100BF84F83450A16B0143A16313E0F5
:10141000204600F077FF0028F4D14FF400712068D7
:1014200000F0CEFC002808D0226805499163A16B2A
:101430000143A16384F834500120FEBD00802542A1
:10144000FF054000F0B587B0044614216846FEF75A
:1014500082FF1D492068884233D11C48002401685E
:1014600041F400610160006800F4006005901748D5
:101470001438016841F004010160016801F00401C1
:101480000591016841F0080101600068022500F043
:10149000080005904FF4F850CDE9000502AA032694
:1014A0000C2782E8D00069460948FFF7D9F80420E4
:1014B000CDE9000502AA694682E8D0000548FFF799
:1014C000CFF807B0F0BD0000002C014044380240C6
:1014D00000080240000C024070B5040009D0606AA8
:1014E000002540B125616561A56294F8510040B1C5
:1014F0000CE0012070BD6068B0F5827FF4D0E5613A
:10150000F2E784F85050204600F044F8022084F8B6
:1015100051002068016821F040010160A088218904
:1015200000F4827001F404410843A18901F40061D0
:101530000843217C01F002010843217D01F00101F3
:101540000843218B01F400710843217F01F0380129
:10155000084394F8201001F080010843218D01F424
:101560000051084321680860A069042101EA104085
:1015700094F8241001F010010843216848602068A5
:10158000C16921F40061C1616565012084F85100E1
:10159000002070BD70B586B0044614216846FEF781
:1015A000DAFE234E22680021224802230324052567
:1015B000B2421AD11F4A1432166846F48056166099
:1015C000126802F480520592026842F00102026041
:1015D000006802AA00F00100059082E83200E020D5
:1015E000CDE90003694614481DE0144EB2421CD1F7
:1015F000104A1032166846F480461660126802F4EB
:1016000080420592026842F002020260006802AA6B
:1016100000F00200059082E832004FF47040CDE9FE
:10162000000369460648FFF71BF806B070BD0000CE
:1016300000300140303802400000024000380040D5
:101640000004024070B515460E46040003D094F81D
:10165000490010B107E0012070BD002084F8480067
:10166000204600F01DF804F108012068FEF7FAFE9C
:101670003146A2682068FEF729FFD4E90102294615
:10168000236BFEF7D1FE2168A06851F8202042F0BC
:10169000010241F82020012084F84900002070BD9B
:1016A000FEF7A4BF10B5401EB0F1807F01D301202A
:1016B00010BD4FF0E02460610F21601701F067F862
:1016C0000020A06107202061002010BD70477047F6
:1016D000F8B5016804460868CA684B6910F00F0F36
:1016E0004FF0000559D003F0010602F4907737431C
:1016F00065D0C10705D0D10503D5616C41F001016A
:101700006164410705D5D90703D0616C41F002013E
:101710006164810705D5D90703D0616C41F00401EC
:101720006164010707D502F02001314303D0616CE9
:1017300041F008016164616C00293AD0800604D54B
:10174000900602D5204600F034FF20684069616CA5
:10175000C0F38010090700D460B3204600F002FFF8
:1017600020684069400621D52068143050E8001FE9
:1017700021F0400140E80012002AF5D1E06BA8B149
:101780006E490165E06BFEF70CFF002811D0E06B9D
:10179000016D01B0BDE8F040084783060FD5930600
:1017A0000DD52046BDE8F84000F003BF2046FFF706
:1017B0008EFFF8BD2046FFF78AFF6564F8BD266BF3
:1017C0002023012E7DD1C6067BD5D60679D50868A3
:1017D0004868009048694FF00206400641D5E16B29
:1017E000086840680004000CE8D0A28D8242E5D968
:1017F000E085C869B0F5807F2DD020680C3050E8B6
:10180000001F21F4807140E80012002AF5D1206801
:10181000143050E8001F21F0010140E80012002AB6
:10182000F5D12068143050E8001F21F0400140E855
:101830000012002AF5D184F84230256320680C306C
:1018400050E8001F21F0100140E80012002AF5D1F5
:10185000E06BFEF75DFE6663A08DE18D401A81B2FC
:101860002AE0A08DE18D401A81B2E08D0028A5D03C
:101870000029A3D022680C3252E8000F20F49070A7
:1018800042E80007002FF5D12068143050E8002FFF
:1018900022F0010240E80027002FF5D184F8423001
:1018A000256320680C3050E8002F22F0100240E839
:1018B0000023002BF5D166632046FFF707FFF8BD34
:1018C000FFE705062BD5150629D594F841002128F8
:1018D000F5D1A068B0F5805F01D12069B0B1206A70
:1018E000411C2162216800784860E08C401E0004A1
:1018F000000CE084E3D12068C16821F08001C16060
:101900002068C16841F04001C160D8E7206A0088C2
:10191000C0F308004860206A801C2062E5E74006AA
:10192000CDD55006CBD5CA68204622F04002CA6009
:1019300084F8413000F075F8C1E700005525000833
:1019400070B5040004D094F84100002510B106E001
:10195000012070BD84F84050204600F023F8242078
:1019600084F841002068C16821F40051C16020461C
:1019700000F080FE2068016921F490410161206837
:10198000416921F02A0141612068C16841F4005198
:10199000C1606564202084F8410084F842006563DA
:1019A000002070BD10B586B0044614216846FEF7CD
:1019B000D2FC18492068884229D1174800210268C2
:1019C00042F010020260006800F01000059012481A
:1019D0001438026842F001020260006800F0010061
:1019E00005904FF4C06000900220CDE90101032072
:1019F00003900720049069460848FEF731FE002254
:101A000011462520FFF798F82520FFF787F806B044
:101A100010BD0000001001404438024000000240A8
:101A200070477047FEE7000000B587B01C2168468C
:101A3000FEF791FC15484FF0204110220160144937
:101A4000416000218160C160C0E904128161C1610F
:101A500013020162C0E90913C1620163416381633A
:101A600041640F20FF230090CDE90103CDE903027B
:101A70001120CDE90501002269460448FFF7E2FD87
:101A8000002801D0FEF7CDFC07B000BD18000020F3
:101A9000040100A02DE9F04786B014216846FEF746
:101AA0005AFC37480024016841F0100101600168C8
:101AB00001F010010591016841F004010160016825
:101AC00001F004010591016841F001010160016824
:101AD00001F001010591016841F002010160016816
:101AE00001F002010591016841F008010160006800
:101AF000244F00F0080042F2080505900122294613
:101B00003846FEF7ADFEDFF8808000220121404616
:101B1000FEF7A6FEDFF874904FF40466002231460B
:101B20004846FEF79DFEDFF868A0002203215046DC
:101B3000FEF796FE00950125CDE901546946384629
:101B40000394FEF78DFD0095CDE9015469464046AA
:101B50000394FEF785FD0096CDE901546946484699
:101B60000394FEF77DFD03200090CDE90154694602
:101B700050460394FEF774FD06B0BDE8F087000000
:101B8000303802400008024000040240000C0240CD
:101B9000001002400D4810B50B4901600C4941602E
:101BA00000214FF480428160C0E9031241618161EC
:101BB000C1610162FEF760FE002803D0BDE810405D
:101BC000FEF72FBC10BD000000540040680000204C
:101BD000A086010010B50E480C490022C0E9001291
:101BE000CC148260C0E9032442618261FFF7D0FB1C
:101BF00008B1FEF716FC21460548FFF771FA0028E8
:101C000003D0BDE81040FEF70CBC10BD002C014015
:101C1000BC0000200F4810B50D4901604FF48271DF
:101C2000416000218160C1604FF400720161C0E930
:101C30000512C1610162416281620A21C162FFF73E
:101C40004BFC002803D0BDE81040FEF7EABB10BDF6
:101C500000300140400100200E4810B50C490160E1
:101C60004FF48271416000218160C1600161416176
:101C70008161C1610162416281620A21C162FFF733
:101C80002BFC002803D0BDE81040FEF7CABB10BDF6
:101C900000380040980100200C4810B50A49016046
:101CA0004FF4E1314160002181600C22C160C0E944
:101CB00004128161C161FFF743FE002803D0BDE833
:101CC0001040FEF7AEBB10BD00100140F001002037
:101CD000FEE7FEE770470A6842624A688262D1E91D
:101CE00002231A43D1E904310B43C16A1A4321F09C
:101CF000F7011143C16200207047006800F0030043
:101D0000704708444069704770B50DF1100C1143DD
:101D10009CE870002343194329434268314347F646
:101D2000FF639A430A434260002070BD03210160B3
:101D300000207047D0F8800070470A688260D1E9BF
:101D400001231A43D1E903310B43C1681A436FF3EE
:101D50000B011143C1600020704710B585B00446E7
:101D60003720CDE9001040200290002003904FF46E
:101D70008060049069462046FFF7DFFF41F2883219
:101D80003721204600F004F905B010BD10B5044617
:101D90000A4885B001432920CDE900104020029077
:101DA000002003904FF48060049069462046FFF7BE
:101DB000C4FF204600F0A4F905B010BD000010805B
:101DC00010B585B004461020CDE9001040200290E7
:101DD000002003904FF48060049069462046FFF78E
:101DE000ACFF41F288321021204600F0D1F805B056
:101DF00010BD10B585B004460620CDE90010402086
:101E00000290002003904FF48060049069462046C1
:101E1000FFF793FF41F288320621204600F0B8F820
:101E200005B010BD30B585B000240546009401947E
:101E30004FF480600294CDE9034069462846FFF7DD
:101E40007CFF0B484FF4FA510068B0FBF1F041F20F
:101E500088314843401E03D24FF0004005B030BDEA
:101E6000696B0906F6D5C520A8632046F6E7000091
:101E70001400002010B585B004464FF4D5700090D2
:101E80000820019040200290002003904FF48060D1
:101E9000049069462046FFF750FF204600F096F96F
:101EA00005B010BD10B585B004460720CDE900206F
:101EB00040200290002003904FF480600490694617
:101EC0002046FFF73AFF41F288320721204600F012
:101ED0005FF805B010BD10B585B0044600210220A2
:101EE000CDE90010C020CDE902014FF480600490DC
:101EF00069462046FFF721FF204600F0D9F805B0DB
:101F000010BD10B585B004460920CDE90010C020F1
:101F10000290002003904FF48060049069462046B0
:101F2000FFF70BFF204600F0C3F805B010BD10B559
:101F300085B0044600213320CDE900104020CDE9D2
:101F400002010001049069462046FFF7F6FE41F2C7
:101F500088323321204600F01BF805B010BD30B5A3
:101F600085B00C46054600210320CDE90010402035
:101F7000CDE902010001049069462846FFF7DDFE25
:101F800022460321284600F0DDF805B030BD0000F0
:101F9000454B10B51B684FF4FA54B3FBF4F35343AD
:101FA0005B1E02D24FF0004010BD426B12F0450F95
:101FB000F6D01205F4D4426B520703D50421816395
:101FC000084610BD426BD20702D00121816305E0B3
:101FD000C52282630269D2B28A4201D0012010BDBB
:101FE0000021FFF78EFE3149084201D1002010BDCB
:101FF000002802DA4FF0007010BD410001D54020EA
:1020000010BD810001D5802010BDC10002D54FF464
:10201000807010BD010102D54FF4007010BD410168
:1020200002D54FF4806010BDC10102D54FF40060AD
:1020300010BD010202D54FF4805010BD410202D5FF
:102040004FF4005010BD810202D54FF4804010BD06
:10205000C10202D54FF4004010BD410302D54FF438
:10206000003010BD810302D54FF4802010BDC103A4
:1020700002D54FF4002010BD010402D54FF48010AA
:1020800010BD410402D54FF4001010BD810402D5EB
:102090004FF4800010BD000702D54FF4000010BDC2
:1020A0004FF4803010BD00001400002008E0FFFD58
:1020B00012494FF4FA520968B1FBF2F141F2883249
:1020C0005143491E02D24FF000407047426B12F05C
:1020D000450FF6D01205F4D4416B490703D504210E
:1020E000816308467047416BC90703D001218163B2
:1020F00008467047C5218163002070471400002006
:102100000F494FF4FA520968B1FBF2F141F28832FB
:102110005143491E02D24FF000407047426B12F00B
:10212000450FF6D01205F4D4416B490703D50421BD
:10213000816308467047C521816300207047000015
:102140001400002030B5204B4FF4FA541B68B3FB49
:10215000F4F341F2883463435B1E02D24FF0004037
:1021600030BD446B14F0450FF6D02405F4D4436B16
:102170005B0703D504218163084630BD436BDB0751
:1021800002D00121816303E00369DBB28B4201D0FD
:10219000012030BDC52181630021FFF7B2FD10F49D
:1021A000604F04D0410406D54FF4005030BD000C00
:1021B0001080002030BD000402D54FF4805030BDA7
:1021C0004FF4803030BD00001400002014494FF45B
:1021D000FA520968B1FBF2F141F288325143491ECB
:1021E00002D24FF000407047426B12F0450FF6D01C
:1021F0001205F4D4416B490703D5042181630846D5
:102200007047416BC90703D00121816308467047BD
:10221000416B490601D540218163002070470000D1
:10222000140000202DE9F04788B00D460446FEF763
:102230001DFB00268246009601963746082120683D
:10224000FFF7BEFD00282CD1B4F85000010420682F
:10225000FFF783FD002824D1401E4FF00808CDE988
:10226000020830204FF00209CDE904090120CDE930
:10227000067002A92068FFF72EFD2068FFF757FEC1
:1022800000280ED16F462068416B11F02A0F0BD049
:10229000416B090702D4416B89051AD5C0F8388013
:1022A000082008B0BDE8F087416B890205D5FFF72B
:1022B00041FD47F82600761C02E0416B8904E7D512
:1022C000FEF7D4FAA0EB0A00401CDCD14FF000402E
:1022D000E7E7416B890703D5C0F838900220E0E7B3
:1022E000416B890603D5202181630846D9E740F276
:1022F0003A518163019800BA2860009800BA68607A
:102300000020CEE710B590B004460120ADF83800AB
:102310002068FFF7F2FC002854D0606C032842D0FC
:102320002068FFF7D8FD00284AD100212068FFF778
:10233000E8FC606704212068FFF7E3FCA067082140
:102340002068FFF7DEFCE0670C212068FFF7D9FC6E
:10235000C4F88000606C032825D00EA92068FFF720
:10236000FEFD00282CD1606C03281CD0BDF838007D
:10237000206501042068FFF7C4FD002820D100215A
:102380002068FFF7BEFC606604212068FFF7B9FCF7
:10239000A06608212068FFF7B4FCE0660C212068E5
:1023A000FFF7AFFC206704212068FFF7AAFC000DAF
:1023B000E06403A92046FEF71FFF30B14FF08050C4
:1023C00010B010BD4FF08060FAE7B4F85000002361
:1023D00002042068FFF766FD0028F1D104F1100027
:1023E00007C88DE8070094E80F00FFF78DFC002078
:1023F000E6E700002DE9F84F002604460096354632
:10240000B0460068FFF70EFD002827D12068FFF7CF
:1024100031FD4FF0805B4FF001094FF6FF7748B177
:10242000A6642068FFF7FEFC002817D1A06C0128E5
:1024300002D020E0C4F8489000212068FFF78DFC0E
:1024400058B918E000212068FFF787FC002805D163
:1024500051462068FFF79AFC10B15846BDE8F88F46
:1024600000212068FFF74DFC05464FEAD078009820
:10247000401C009002E0DFF82CA00098B84202D285
:10248000B8F1000FDED00098B84202D34FF0807050
:10249000E4E7680002D5C4F8449000E066640020D8
:1024A000DCE70000000010C17047FEF7DDBA000055
:1024B00030B593B030216846FDF74DFF14210CA8CC
:1024C000FDF749FF1D480024016841F0805101607B
:1024D000006800F0805011901948016841F4804173
:1024E00001600068012100F48040039111901021E7
:1024F0000220049106AA00900F2582E83100902165
:10250000CDE9091005200B906846FEF733FC08B1B1
:1025100072B6FEE74FF4A050CDE90E40CDE90C5461
:102520004FF48050109000210CA8FEF737FB0028D4
:1025300001D072B6FEE713B030BD00004038024053
:10254000007000400248016841F47001016070476A
:1025500088ED00E010B5806B0021C185C184FFF7D4
:10256000B6F810BD01680C3151E8002F22F49072CA
:1025700041E80023002BF5D10168143151E8002F08
:1025800022F0010241E80023002BF5D1016B012963
:1025900009D101680C3151E8002F22F0100241E806
:1025A0000023002BF5D1202180F842100021016387
:1025B000704708B590F84210222901D0022008BDCA
:1025C00082684FF480539A4201D1016921B1816A36
:1025D0009A421BD04AB10AE00268816A5268C2F38B
:1025E00008020A80816A891C08E0026972B10268E7
:1025F000526802F07F020A70816A491C8162C18DB3
:10260000491E0904090CC18503D01BE00268526809
:10261000F1E70168CA6822F02002CA600168CA684E
:1026200022F48072CA6001684A6922F001024A619C
:10263000202180F8421000214163026B012A03D05F
:10264000FFF7EEF9002008BD016301680C3151E885
:10265000002F22F0100241E80023002BF5D1016881
:102660000A68D20602D50A6849680091818DFFF791
:102670002DF8E7E770B5044600680169E26821F4C7
:102680004051114301612169A068E2690843616911
:10269000114308432168CA6849F20C639A43024314
:1026A000CA6020684169A26921F440711143416107
:1026B00031492068884202D03049884202D1FEF771
:1026C00017FB01E0FEF704FBE269002319216425F2
:1026D0003226B2F5004F626828D0A0FB0101930FAB
:1026E0009200FDF7C1FD0146B0FBF5F06FF0180256
:1026F000504301EB800006EB0010B0FBF5F000F05A
:10270000F002B1FBF5F002EB0012B1FBF5F06FF057
:102710001803584301EB800006EB0010B0FBF5F006
:1027200000F00F0021681044886070BDA0FB01011B
:1027300092185B41FDF798FD0146B0FBF5F00201F0
:10274000B1FBF5F06FF01803584301EB800006EB86
:10275000C000B0FBF5F000F0F80002EB4002B1FB66
:10276000F5F0584301EB800006EBC000B0FBF5F03C
:1027700000F00700D6E700000010014000140140FF
:102780000148FEF7A5BF0000F0010020FEE70907A1
:10279000090E002804DB00F1E02080F800147047E7
:1027A00000F00F0000F1E02080F8141D70470000D9
:1027B000FEF762F9FFF77CFEFFF76CF9FFF76CFAA2
:1027C000FFF74AFAFFF7E6F9FFF72EF9FFF702FAEB
:1027D000FFF720FA084D4FF4FA7401212846FEF75E
:1027E00037F82046FDF7F0FE02212846FEF730F8C4
:1027F0002046FDF7E9FEF0E7001002404FF0407080
:10280000E1EE100A70470000000000000000010225
:102810000304060708090000000001020304000089
:10282000402800080000002018000000C401000833
:10283000582800081800002080080000E001000867
:102840000000000000000000010000001000000077
:08285000000000000024F40068
:040000050800018965
:00000001FF
